:020000040800F2
:10000000E05B002031030008390300083B030008CF
:100010003D0300083F030008410300080000000002
:10002000000000000000000000000000790200084D
:100030004503000800000000CD020008B5300008AC
:100040004B0300084B0300084B0300084B03000858
:100050004B0300084B0300084B0300084B03000848
:100060004B0300084B0300084B0300084B03000838
:100070004B0300084B0300084B0300084B03000828
:100080004B0300084B0300084B0300084B03000818
:100090004B0300084B0300084B0300084B03000808
:1000A0004B0300084B0300084B0300084B030008F8
:1000B0009D36000869370008353800084B030008F2
:1000C0004B0300084B0300084B0300084B030008D8
:1000D0004B0300084B030008ED3E00084B030008EB
:1000E0004B0300084B0300084B0300084B030008B8
:1000F0004B0300084B0300084B0300084B030008A8
:100100004B0300084B0300084D3800084B03000860
:10011000553E0008BD3E00084B0300087538000836
:100120004B0300084B0300084B0300084B03000877
:100130004B0300084B0300084B0300084B03000867
:100140004B0300084B0300084B0300084B03000857
:100150004B0300084B0300084B030008293F00082D
:100160004B0300084B0300084B0300084B03000837
:100170004B0300084B0300084B0300084B03000827
:100180004B0300084B03000800F002F800F064F88D
:100190000AA090E8000C82448344AAF10107DA45E2
:1001A00001D100F059F8AFF2090EBAE80F0013F0D0
:1001B000010F18BFFB1A43F001031847DCEA0000E7
:1001C000FCEA00000A444FF0000C10F8013B13F069
:1001D000070408BF10F8014B1D1108BF10F8015BA0
:1001E000641E05D010F8016B641E01F8016BF9D193
:1001F00013F0080F1EBF10F8014BAD1C0C1B09D1EA
:100200006D1E58BF01F801CBFAD505E014F8016B5B
:1002100001F8016B6D1EF9D59142D6D370470000ED
:100220000023002400250026103A28BF78C1FBD8FF
:10023000520728BF30C148BF0B607047642900F0E7
:10024000F380732900F04A83002070471FB50AF03D
:10025000BCF91FBD10B510BD00F0DEFB1146FFF765
:10026000F5FF05F04FFF00F0FCFB03B4FFF7F2FFD2
:1002700003BC04F098FC00002A4B19680868B0E839
:10028000F04F80F30988BFF36F8F4FF0000080F3C9
:10029000118870470000000006480068006880F37D
:1002A000088862B661B6BFF34F8FBFF36F8F00DF70
:1002B00000BF00BF08ED00E0DFF80C00016841F46A
:1002C00070010160704700BF88ED00E0EFF3098026
:1002D000BFF36F8F134B1A681EF0100F08BF20ED8D
:1002E000108A20E9F04F106008B44FF0500080F3FE
:1002F0001188BFF34F8FBFF36F8F08F057FC4FF09B
:10030000000080F3118808BC19680868B0E8F04F55
:100310001EF0100F08BFB0EC108A80F30988BFF3FD
:100320006F8F7047D4000020EFF305807047000006
:100330000948804709480047FEE7FEE7FEE7FEE779
:10034000FEE7FEE7FEE7FEE7FEE7FEE704480549B5
:10035000054A064B70470000D530000889010008A7
:10036000E0550020E05B0020E0570020E05700202F
:10037000704710B54C1084EA530404D54042C1F1D3
:10038000000138BF491E1B4204D55242C3F100038D
:1003900038BF5B1E00F09DF914F0804F04D040423E
:1003A000C1F1000138BF491E14F0004F04D0524281
:1003B000C3F1000338BF5B1E10BD00000FB4044939
:1003C00010B503AA029800F08DFA10BC5DF814FB7A
:1003D0005001002070B50C460546012A05D028784A
:1003E000800600D5EA69002302E0012305E05B1CDA
:1003F000934202D2E05C0028F9D1A869E618C01A3D
:10040000A861286A184428622846AFF3008004E0F7
:10041000D5E9012114F8010B9047B442F8D32846DE
:10042000AFF3008070BD00002DE9F04106460024C6
:1004300010687529314616A510D0AFF3008000284A
:1004400002DA404213A507E031688A0701D512A5F8
:1004500002E0490704D511A5012401E0AFF30080B3
:1004600000210A2206F1240709E0B0FBF2FCB0FBF0
:10047000F2F302FB1C00303078541846491C002867
:10048000F3D123462A463046BDE8F04100F0A3B937
:10049000000000002D0000002B00000020000000E4
:1004A0002DE9F05F894604464FF0000ADFF824B1D9
:1004B000FB44C0F820A02046E168884700287DD092
:1004C000252806D0D4E901219047206A401C2062EB
:1004D000F1E700255F462046E16888472028064668
:1004E00007DB312E05D2B81910F8200C08B10543EE
:1004F000F1E7A80701D525F00405C4F81CA00027E2
:10050000C4F818A02A2E09D0304604F045FB38B3B1
:1005100004EB8708303EC8F8186019E059F8041B4E
:10052000204604EB87029161E1688847012F064667
:1005300018D1E069002820DA25F020051DE0D8F860
:10054000180000EB800006EB40003038C8F81800B7
:100550002046E1688847064604F01EFB0028EED1DD
:10056000012F0AD02E2E08D12046E16888477F1C33
:100570000646022F45F02005C4DBA069002803DAF7
:10058000404245F00105A061E80701D025F01005C3
:10059000A6B1A6F14100192802D8203645F400651D
:1005A0004A463146204625604D46FFF747FE60B17A
:1005B000012807D0ED1D25F0070000E007E000F15D
:1005C000080978E705F1040975E730467AE7206AFB
:1005D000BDE8F09F8EE6000040EA010310B59B07DE
:1005E0000FD1042A0DD310C808C9121F9C42F8D09D
:1005F00020BA19BA884201D9012010BD4FF0FF304E
:1006000010BD1AB1D30703D0521C07E0002010BD63
:1006100010F8013B11F8014B1B1B07D110F8013BEF
:1006200011F8014B1B1B01D1921EF1D1184610BDD0
:10063000032A40F2308010F0030C00F0158011F80E
:10064000013BBCF1020F624498BF11F801CB00F8E6
:10065000013B38BF11F8013BA2F1040298BF00F83A
:1006600001CB38BF00F8013B11F0030300F04C81CF
:10067000083AC0F0088051F8043B083A51F804CB1E
:10068000A0E80810F5E7121D5CBF51F8043B40F8E4
:10069000043BAFF30080D20724BF11F8013B11F8EF
:1006A00001CB48BF11F8012B24BF00F8013B00F833
:1006B00001CB48BF00F8012B704702F0FF0343EA6B
:1006C000032242EA024200F053B970477047704774
:1006D000704753EA020C00F069802DE9F04B4FF0AF
:1006E0000006002B1FBFB3FA83F503FA05F424FAC2
:1006F00005F65E4012BF1643B2FA82F502FA05F41F
:10070000C5F120051EBF22FA05FC44EA0C04203581
:1007100056EA044C4FEA144418BF641C4FF000081A
:100720004FF00009904271EB030C39D3002919BF37
:10073000B1FA81F701FA07F6B0FA80F700FA07F686
:10074000C7F120071EBF20FA07FC46EA0C06203737
:10075000B6FBF4FCA7EB0507103F07F01F0BCBF12E
:1007600020060CFA0BFB2CFA06F644BFB346002613
:10077000202FA4BF5E464FF0000B5BEA060C08BFBB
:100780004FF0010B19EB0B09ABFB027C48EB0608A1
:10079000C01B06FB02CC0BFB03CC71EB0C01C1E7C9
:1007A0000B46024641464846BDE8F08B13B54FF074
:1007B00000004FF00001AFF30080BDE81C4070471F
:1007C00010B500F0F5F8006810BD10B5044600F053
:1007D000EFF8046010BD2DE9F0470D4699469246AA
:1007E000044600F124080168880604D5E06921F078
:1007F0001001216000E00120A84201DD471B00E05C
:100800000027A1697A1902EB0900081AA061207873
:10081000C00602D42046AFF30080002608E0D4E9E9
:1008200001211AF806009047206A401C761C2062BD
:100830004E45F4DB2078C0060AD52046AFF3008091
:1008400006E0D4E9012130209047206A401C206254
:10085000381EA7F10107F4DC07E0D4E9012118F8FC
:1008600005009047206A401C2062281EA5F1010562
:10087000F3DC2046AFF300802078000602D502208A
:10088000BDE8F0870120FBE701694A1C0261087896
:10089000704700B58FB0CDE90131002105910549C0
:1008A0007944CDE9031011466846FFF7F9FD0FB012
:1008B00000BD0000E5FFFFFF10B5436913B1AFF3C2
:1008C000008001E0FFF786FD012010BD127800F1E5
:1008D00024010A7000224A700122EDE711684FF0EE
:1008E000FF32E9E7074B70B50D467B44FFF7D1FFB8
:1008F0000446284600F060F810B14FF0FF3070BD9C
:10090000204670BDDB50000010B5203AC0F00B80CF
:10091000B1E81850203AA0E81850B1E81850A0E803
:100920001850BFF4F5AF5FEA027C24BFB1E818505D
:10093000A0E8185044BF18C918C0BDE810405FEACD
:10094000827C24BF51F8043B40F8043B08BF704749
:10095000D20728BF31F8023B48BF11F8012B28BF4E
:1009600020F8023B48BF00F8012B70474FF000020F
:100970000429C0F0128010F0030C00F02380CCF1A9
:10098000040CBCF1020F18BF00F8012BA8BF20F81F
:10099000022BA1EB0C0100F015B85FEAC17C24BF6B
:1009A00000F8012B00F8012B48BF00F8012B70471D
:1009B0000048704780550020007B00F080007047A1
:1009C0004FF0000200B5134694469646203922BFE8
:1009D000A0E80C50A0E80C50B1F12001BFF4F7AF33
:1009E000090728BFA0E80C5048BF0CC05DF804EB15
:1009F000890028BF40F8042B08BF704748BF20F883
:100A0000022B11F0804F18BF00F8012B7047000037
:100A100000487047805500207546FFF7F9FFAE4645
:100A200005006946534620F00700854618B020B5FA
:100A3000FFF78CFCBDE820404FF000064FF00007A8
:100A40004FF000084FF0000B21F00701AC46ACE876
:100A5000C009ACE8C009ACE8C009ACE8C0098D46E3
:100A6000704710B50446AFF300802046BDE8104043
:100A7000FFF7FBBB10B54FF4407001F067F9A820F9
:100A800004F046F900F023F84FF47A7004F062F9AC
:100A900000F017F800F03AF800F048FC4FF4165058
:100AA00007F04CFC4FF4165000F058F84FF4E130CA
:100AB00000F0B0F800F014F801F0CCF800F042F8C3
:100AC00010BD10B500F02AFA00F07EFA10BD10B586
:100AD00000F090FF00BF05F081FC0028FBD110BDA5
:100AE00010B500214FF6FF7002F0D8FE00214FF63E
:100AF000FF7002F007FC02F0DDFD02F001FD02F0E4
:100B00003FFE02F06FFD02F019FB10BD10B542F27E
:100B1000CF01C72002F054FC42F2CF01C72002F0FF
:100B20009FFC0A21054803F020F90921044803F03D
:100B30001CF9322004F00EF910BD00000020004026
:100B4000001C004008B500F01BFD0020402380225F
:100B50000146009000F09BFC08BD000010B588B075
:100B600004460121042001F0D7F90121C80401F055
:100B7000E3F908220A21254800F088F908220B2110
:100B8000224800F083F94FF44060069002208DF86F
:100B90001C008DF81D0000208DF81E0001208DF82E
:100BA0001F0006A9194800F029F902940020ADF8A9
:100BB0000C00ADF80E00ADF81000ADF814000C20DC
:100BC000ADF8120002A9124803F04CFA01211048B6
:100BD00003F0E0F934208DF8040003208DF80500BF
:100BE00000208DF8060001208DF8070001A801F013
:100BF00071F84021064803F0B5F9012240F2255171
:100C0000034803F00AFA08B010BD000000080240D3
:100C1000004C004010B588B004460121202001F0AE
:100C2000ABF90121042001F077F9082206212448BC
:100C300000F02CF908220721214800F027F9C020F4
:100C4000069002208DF81C008DF81D0000208DF804
:100C50001E0001208DF81F0006A9194800F0CEF8EB
:100C600002940020ADF80C00ADF80E00ADF81000B5
:100C7000ADF814000C20ADF8120002A9114803F0E1
:100C8000F1F9012240F225510E4803F0C6F9472040
:100C90008DF8040003208DF8050004208DF806006F
:100CA00001208DF8070001A801F014F84021054843
:100CB00003F058F90121034803F06CF908B010BDA6
:100CC00000080240001401409FED260A264880EDEE
:100CD000000A9FED240A80ED010A642007F054FD0C
:100CE0003FE001F09FFE00F047F8204890ED021A27
:100CF000F0EE410A1E4890ED021AB0EE410A1D487E
:100D000001F02EF8194890ED011AF0EE410A18484A
:100D100090ED011AB0EE410A1648243801F020F88F
:100D2000124890ED001AF0EE410A114890ED001AB9
:100D3000B0EE410A0F48483801F012F80B4890ED28
:100D4000031AF0EE410A0A4890ED031AB0EE410A88
:100D50000848243001F004F801F026FD322007F0A5
:100D600013FDBEE70000000008020020F80100208B
:100D700014020020B00100201C48006800B240426C
:100D800000EE100AB8EEC00A194880ED000A0020F3
:100D9000164908601748406A00B2404200EE100A47
:100DA000B8EEC00A124880ED010A002011494862DD
:100DB0001148006800B2404200EE100AB8EEC00AC6
:100DC0000B4880ED020A00200B4908600807406AC2
:100DD00000B2404200EE100AB8EEC00A044880EDAE
:100DE000030A0020090748627047000024040040FD
:100DF000140200200000014024080040F0B50A461B
:100E000000210023002400BF3DE0012505FA01F385
:100E1000156805EA03049C4234D105684F00032697
:100E2000BE40B543056015794E00B54006683543B0
:100E300005601579012D02D01579022D16D185682E
:100E40004F000326BE40B543856055794E00B5403E
:100E5000866835438560456801268E40B543456008
:100E6000456896798E40B6B235434560C5684F00F7
:100E70000326BE40B543C560D5794E00B540C6686F
:100E80003543C560491C1029BFD3F0BDF0B5002320
:100E900000244D07ED0E02FA05F3CE1000F12005F7
:100EA00055F826504E07F70E0F26BE40B543CF101B
:100EB00000F1200646F82750CE1000F1200555F825
:100EC000265045EA0304CE1000F1200545F82640DF
:100ED000F0BD0246002013690B400BB1012000E079
:100EE0000020704741837047018370470EB511E0C1
:100EF00000BF6A4601A902A805F064F90028F8D1EC
:100F00009DED000A05F092FC034880ED020A0120E5
:100F100007F03AFCECE700000802002000B585B0BD
:100F20000121022000F0F8FF4FF40060039003203D
:100F30008DF8110001208DF8100003A92048FFF75B
:100F40005DFF4FF400611E48FFF7CCFF4FF4806057
:100F5000039003208DF8110000208DF8100003A9E4
:100F60001748FFF74BFF4FF480611548FFF7BAFFB2
:100F70000121202000F0E0FF124802F00BFD40F2BA
:100F8000E73001905320ADF800000020ADF80800D4
:100F9000ADF8020069460B4802F01AFF012109482A
:100FA00002F0E6FC01221146064802F02DFE05F093
:100FB00045F80021034802F0E1FC05B000BD000047
:100FC000000402400014004000B585B00121022059
:100FD00000F0A2FF4FF40050039003208DF81100A1
:100FE00001208DF8100003A92048FFF707FF4FF4F8
:100FF00000511E48FFF776FF4FF480500390032006
:101000008DF8110000208DF8100003A91748FFF794
:10101000F5FE4FF480511548FFF764FF01210820C9
:1010200000F08AFF124802F0B5FC40F2E730019070
:101030005320ADF800000020ADF80800ADF8020024
:1010400069460B4802F0C4FE0121094802F090FCF9
:1010500001221146064802F0D7FD05F003F80021F1
:10106000034802F08BFC05B000BD00000004024004
:10107000000C004010B500200F4908600F480068C0
:1010800020F440200D4908600846006840F48020A4
:10109000086000200A49C1F8A402022003F07AFE89
:1010A000012005490860022003F074FE0020044975
:1010B000C1F8A00210BD0000A0824042000402401E
:1010C000008040421CB50121022000F025FF4FF4B2
:1010D0004070009001208DF8040000208DF806007B
:1010E00003208DF8050001208DF8070069460548AA
:1010F000FFF784FE0120044908600449C1F8A402F6
:101100001CBD000000040240A0824042008040421A
:1011100010B500200F4908600F48006820F44020F7
:101120000D4908600846006840F4802008600120EE
:101130000A49C1F8A402022003F02CFE012005494F
:101140000860022003F026FE00200449C1F8A00236
:1011500010BD0000A08240420004024000804042D6
:1011600070B5054600241648006820F44020144954
:101170000860084600680860002616E00020114953
:101180000860022003F006FE01200F49C1F8A0020A
:101190006006040E0B487C38006808B1601CC4B2BD
:1011A000012003F0F7FD701CC6B2082EE6DB15B96E
:1011B000FFF7AEFF01E0FFF75DFF204670BD0000C6
:1011C00000040240A08240420080404270B50446C4
:1011D0001548006820F4402013490860084600685C
:1011E00040F480200860002010490860002517E0C6
:1011F000E0090E49091D08606006040E022003F094
:10120000C9FD01200A49C1F8A002022003F0C2FD75
:10121000002006490860022003F0BCFD681CC5B22E
:10122000082DE5DB70BD000000040240A0824042B2
:101230000080404210B50F48006820F440200D495E
:1012400008600846006840F48020086001200A49D0
:1012500008600A49C1F8A002042003F09BFD0020A9
:1012600005490860042003F095FD00200349C1F8FA
:10127000A00210BD00040240A4824042008040420F
:1012800010B50F48006820F440200D49086008465A
:10129000006840F48020086000200A4908600A497C
:1012A000C1F8A402042003F075FD0120054908607F
:1012B0000549C1F8A402042003F06CFD10BD000034
:1012C00000040240A08240420080404210B5002449
:1012D0001348006820F4402011490860084600685F
:1012E000086001200F49086003F054FD01200E49F9
:1012F000C1F8A00203F04EFD07E0601CC4B2FA2C56
:1013000003DDFFF7BDFF012010BD064880380068EF
:101310000028F2D10349091F086000BFF4E700006C
:1013200000040240A4824042008040421CB50121DA
:10133000102000F0F1FD0121042000F0EDFD082057
:10134000009000208DF8040003208DF80500022095
:101350008DF8070069460548FFF750FD4FF48050AF
:10136000009069460248FFF749FD1CBD001002408D
:101370000008024053E02A48007801281FD128487D
:10138000807801281BD101032648FFF7A2FD012820
:1013900005D008212448FFF79CFD012807D14FF410
:1013A0007A7007F0F1F902201D49087034E04FF41B
:1013B000FA6007F0E9F90220194908702CE0184892
:1013C0000078042828D116488078012824D10821E3
:1013D0001548FFF787FD4FF480511248FFF782FD53
:1013E0004FF480510F48FFF774FD012805D0082104
:1013F0000D48FFF76EFD012807D140F2DC5007F0E1
:10140000C3F905200649087006E040F6AC5007F025
:10141000BBF9052002490870052007F0B5F9AAE7D5
:101420001C00002000080240001002402DE9F0419D
:1014300004460D4616461F462A2000F0A3FAA11CBA
:1014400088B200F090FAB11C88B200F08CFA2B2020
:1014500000F098FA05F1430188B200F084FA07F130
:10146000430188B200F07FFA2C2000F08BFABDE82F
:10147000F08170B504460D4616462B462246294695
:101480002046FFF7D3FF304600F06DFA70BD2DE91E
:10149000F04706460F4614461D46DDF820A0681E9C
:1014A00083B2601E82B239463046FFF7BFFFB846AE
:1014B0000EE0B14606E0504600F055FA09F1010091
:1014C0001FFA80F9A145F6DB08F101001FFA80F848
:1014D000A845EEDBBDE8F0871CB501215F2000F0D8
:1014E0001BFD4FF48050009001208DF80400002077
:1014F0008DF8060003208DF8050001208DF8070007
:1015000069461C48FFF77AFC4FF480511948FFF7F1
:10151000EBFC48F23200009001208DF8040000201E
:101520008DF8060003208DF8050001208DF80700D6
:1015300069461148FFF762FC48F232010E48FFF796
:10154000D3FC4FF4A060009001208DF8040000202F
:101550008DF8060003208DF8050001208DF80700A6
:1015600069460648FFF74AFC4FF4A0610348FFF7BD
:10157000BBFC1CBD00180240000C024000100240E1
:1015800010B5FFF7A9FF10218F48FFF7ABFC6420CF
:1015900003F0E0FB10218C48FFF7A6FC642003F069
:1015A000D9FB02218848FFF79FFC642003F0D2FB9F
:1015B000112000F0E7F9782003F0CCFBB12000F017
:1015C000E1F9012000F0D8F92C2000F0D5F92D2008
:1015D00000F0D2F9B22000F0D5F9012000F0CCF9EA
:1015E0002C2000F0C9F92D2000F0C6F9B32000F03E
:1015F000C9F9012000F0C0F92C2000F0BDF92D2020
:1016000000F0BAF9012000F0B7F92C2000F0B4F98D
:101610002D2000F0B1F9B42000F0B4F9072000F05B
:10162000ABF9C02000F0AEF9A22000F0A5F902202D
:1016300000F0A2F9842000F09FF9C12000F0A2F987
:10164000C52000F099F9C22000F09CF90A2000F0B2
:1016500093F9002000F090F9C32000F093F98A205C
:1016600000F08AF92A2000F087F9C42000F08AF9F6
:101670008A2000F081F9EE2000F07EF9C52000F00C
:1016800081F90E2000F078F9362000F07BF9C820AF
:1016900000F072F9E02000F075F90F2000F06CF90D
:1016A0001A2000F069F90F2000F066F9182000F008
:1016B00063F92F2000F060F9282000F05DF9202068
:1016C00000F05AF9222000F057F91F2000F054F9D9
:1016D0001B2000F051F9232000F04EF9372000F0D4
:1016E0004BF9002000F048F9072000F045F90220EE
:1016F00000F042F9102000F03FF9E12000F042F93B
:101700000F2000F039F91B2000F036F90F2000F00F
:1017100033F9172000F030F9332000F02DF92C2098
:1017200000F02AF9292000F027F92E2000F024F9F2
:10173000302000F021F9302000F01EF9392000F0AF
:101740001BF93F2000F018F9002000F015F90720E0
:1017500000F012F9032000F00FF9102000F00CF94E
:101760002A2000F00FF9002000F006F9002000F018
:1017700003F9002000F000F97F2000F0FDF82B2095
:1017800000F000F9002000F0F7F8002000F0F4F875
:10179000002000F0F1F89F2000F0EEF8F02000F0BB
:1017A000F1F8012000F0E8F8F62000F0EBF8002056
:1017B00000F0E2F83A2000F0E5F8052000F0DCF84F
:1017C000292000F0DFF810BD000C02402DE9FF5F7A
:1017D00080468A4617469B460F9D00200290CDF812
:1017E0000080284605EBD071C1F347042046E2177C
:1017F00004EB5272D2102146E31704EB5373DB1053
:10180000A4EBC3030BB1012300E000231A446A4395
:1018100092B20192A7F12000C7B20AEB0500401E68
:1018200083B208EB0400401E82B251464046FFF7E7
:10183000FDFD002669E00C2D07D107EB4700354977
:1018400001EB8000805D03901BE0102D05D1324834
:1018500000EB0710805D039013E0182D07D107EB14
:1018600047002E4901EB0010805D039009E0202D18
:1018700005D12B4800EB8710805D039001E0BDE8A7
:10188000FF9F4FF000093AE01098C8B9012000FA14
:1018900009F00399084018B1584600F064F802E0D6
:1018A0000E9800F060F80298401CC0B202900298B6
:1018B00090FBF4F104FB1100E8B90020029021E054
:1018C000012000FA09F00399084020B15A46514618
:1018D0004046FFF7CEFD08F101001FFA80F800989E
:1018E000A8EB0000A04206D1DDF800800AF101005B
:1018F0001FFA80FA06E009F1010000F0FF09B9F1D2
:10190000080FC1DB00BF701C86B20198864292DBD3
:1019100000BFB4E7DEA5000852AA000842B00008E4
:1019200012C200082DE9FE4F06460F46144698469F
:10193000DDE90D5ADDF8309010E0CDE9015ACDF81F
:1019400000902278434639463046FFF73FFF28464D
:1019500005EBD07106EB61018EB2641C2078002883
:10196000EBD1BDE8FE8F10B50446201200F01CF844
:10197000E0B200F019F810BD10B50446204600F0A2
:1019800013F810BD10B504464FF400410548FFF7A9
:10199000A9FA204600F008F84FF400410148FFF78B
:1019A000A3FA10BD000C024070B50446002519E0F2
:1019B0004FF480510D48FFF795FA04F0800020B1F4
:1019C00020210B48FFF790FA03E020210848FFF799
:1019D00089FA4FF480510548FFF786FA6006040E35
:1019E000681CC5B2082DE3DB70BD00000018024082
:1019F000000C024010B5FFF765FB80216B2000F062
:101A0000D7F8642003F0A6F900216B2000F0D0F88D
:101A1000032000F08BF8002000F080F8322000F066
:101A2000AAF80021382000F0C3F800216A2000F055
:101A3000BFF80021232000F0BBF88021372000F000
:101A4000B7F8752000F013F80446682C0BD101217B
:101A50006B2000F0ADF800216C2000F0A9F83220D6
:101A600000F089F801E0012010BD0020FCE770B50E
:101A70000446FFF7DFFBD020FFF7A8FBFFF726FCAB
:101A80002046FFF7A3FBFFF721FCFFF7D3FBD12094
:101A9000FFF79CFBFFF71AFC0020FFF761FB0546F0
:101AA000FFF7EEFB284670BD2DE9F04106460F46D4
:101AB00014461D46FFF7BEFB002141EA4601C8B2AD
:101AC000FFF784FBFFF702FC20B1FFF7D9FB0120F1
:101AD000BDE8F0813846FFF779FBFFF7F7FBFFF72A
:101AE000A9FB012101EB4601C8B2FFF76FFBFFF72D
:101AF000EDFB0DE0012C04D10020FFF731FB287035
:101B000003E00120FFF72CFB2870601EC4B26D1C9F
:101B1000002CEFD1FFF7B4FB0020D9E710B5044645
:101B2000E006010E1C2000F043F810BD10B504467D
:101B3000E006010E1B2000F03BF810BD70B5044616
:101B40000025BC2C01DB012510E0622C01DB022505
:101B50000CE02A2C01DB032508E0142C01DB042512
:101B600004E00A2C01DB052500E0062529461A20A1
:101B700000F01EF870BD70B50446B4F57A7F01DD43
:101B80004FF47A74042C00DA04244FF47A7090FB3A
:101B9000F4F0401EC5B22946192000F009F80546A8
:101BA000264604EBD671C1F34F00FFF7C7FF70BDA7
:101BB00070B505460C46FFF73DFBD020FFF706FB4E
:101BC000FFF784FB18B1FFF75BFB012070BD2846CF
:101BD000FFF7FCFAFFF77AFB2046FFF7F7FAFFF76B
:101BE00075FB18B1FFF74CFB0120EFE7FFF748FB4F
:101BF0000020EBE72DE9F04105460E4617469846D2
:101C0000FFF718FB002141EA4501C8B2FFF7DEFAF1
:101C1000FFF75CFB20B1FFF733FB0120BDE8F0814B
:101C20003046FFF7D3FAFFF751FB00240CE018F819
:101C30000400FFF7CBFAFFF749FB18B1FFF720FBD1
:101C40000120EBE7601CC4B2BC42F0DBFFF718FBDD
:101C50000020E3E700B5DFED181A9FED181ADFED5D
:101C6000180A9FED180A184800F036F9DFED121A2D
:101C70009FED121ADFED150A9FED150A1248243068
:101C800000F02AF9DFED0C1A9FED0C1ADFED0F0AB8
:101C90009FED0C0A0C48483000F01EF9DFED061AE3
:101CA0009FED061ADFED090A9FED090A06486C3020
:101CB00000F012F900BD000000E87D4700000000C0
:101CC0000000864200001643680100209A99B14244
:101CD00000007A4370B5002100230F22C4781CB3A2
:101CE000174C246804F4E064C4F5E064C4F30721ED
:101CF000C1F10404E3B20A4144789C40E1B2847823
:101D0000144021430C07210E0E4C057861550478D0
:101D100004F01F050124AC4005786D11AD0005F1FC
:101D2000E025C5F8004109E0047804F01F0501240E
:101D3000AC40054D0678761145F8264070BD000090
:101D40000CED00E000E400E080E100E00249014326
:101D5000024A1160704700000000FA050CED00E037
:101D600010B52DED108B8AB00446B0EE408AF0EE2F
:101D7000608A38EEC80A84ED040A94ED060A10EE73
:101D8000101A084608F0B0FB41EC1F0B94ED050A51
:101D900010EE101A084608F0A7FB9FED4D0B53EC10
:101DA000102BCDE900019DED000B51EC100B08F05C
:101DB000DBF8CDE9040194ED040A10EE101A084690
:101DC00008F092FBCDE902019DED040B53EC102BC2
:101DD0009DED020B51EC100B08F09CFA53EC1F2BFD
:101DE000CDE906019DED060B51EC100B07F074FEDA
:101DF00041EC1D0B94ED020A10EE101A084608F093
:101E000073FB41EC1E0B53EC1D2B08F0ADF841ECBD
:101E10001B0B94ED040AD4ED050A30EE600AD4EDF4
:101E2000000A20EE200AD4ED010A94ED041A00EE17
:101E3000810A10EE101A084608F056FB41EC1C0B04
:101E400053EC1B2B07F048FE41EC1A0B94ED080AEB
:101E500010EE101A084608F047FB53EC1A2BCDE998
:101E600008019DED080B51EC100B07F035FE41EC1D
:101E7000190B07F0FFFD206294ED080AD4ED030A68
:101E8000B4EEE00AF1EE10FA04DD94ED030A84EDFD
:101E9000080A10E094ED080AD4ED030AF1EE600A96
:101EA000B4EEE00AF1EE10FA05D294ED030AB1EEB9
:101EB000400A84ED080A94ED050A84ED060A94EDC3
:101EC000040A84ED050A0AB0BDEC108B10BD0000B9
:101ED000000000000000004080ED000AC0ED010A93
:101EE00080ED021AC0ED031A9FED0A2A80ED042A44
:101EF0009FED082A80ED052A9FED062A80ED062A2F
:101F00009FED042A80ED082A9FED022A80ED072A22
:101F1000704700000000000029B1064A1268024321
:101F2000044B1A6004E0034A12688243014B1A60B2
:101F3000704700003038024029B1064A1268024357
:101F4000044B1A6004E0034A12688243014B1A6092
:101F5000704700004038024029B1064A1268024327
:101F6000044B1A6004E0034A12688243014B1A6072
:101F7000704700002038024029B1064A1268024327
:101F8000044B1A6004E0034A12688243014B1A6052
:101F9000704700004438024029B1064A12680243E3
:101FA000044B1A6004E0034A12688243014B1A6032
:101FB0007047000024380240F0B5002100220024C0
:101FC000022500260223324F3F6807F00C0121B1A1
:101FD000042905D0082937D105E02E4F076036E0E7
:101FE0002D4F076033E02A4F3F1F3F68C7F38056ED
:101FF000274F3F1F3F6807F03F036EB1264FB7FBE7
:10200000F3F7DFF88CC0ACF1040CDCF800C0CCF3C3
:10201000881C07FB0CF40CE01E4FB7FBF3F7DFF84E
:1020200070C0ACF1040CDCF800C0CCF3881C07FBDA
:102030000CF4174F3F1F3F68C7F301477F1C7D001B
:10204000B4FBF5F7076002E0124F076000BF00BF66
:102050000F4F3F6807F0F0010909104F7A5C0768DD
:10206000D74047600A4F3F6807F4E051890A0B4F99
:102070007A5C4768D7408760054F3F6807F4604146
:10208000490B064F7A5C4768D740C760F0BD000037
:10209000083802400024F40000127A0056010020A3
:1020A0000EB5FD49062000F0F1FA0020FB4908704A
:1020B000DEE2FA48007808280DD2DFE800F0040DCF
:1020C0007BBBFDFC0CFB0020F44948708870C87095
:1020D000087101200870C7E200202021CDE900012D
:1020E0004FF4FC63EEA20D2102902820FFF71AFCAA
:1020F0000020EA494870EC4800680B2810D10846D7
:10210000007968B901200871C870887005F06EF90F
:10211000E649062000F0BAFA642006F035FB48E0F4
:10212000E1480068152811D1DC48007970B9012018
:10213000DA490871C870887005F064F9DC49062036
:1021400000F0A4FA642006F01FFB32E0D6480068D5
:102150000C2813D1D148007980B90120CF490871EA
:102160000220C8700120887005F040F9CF49062090
:1021700000F08CFA642006F007FB1AE0CA480068F9
:10218000162816D1C548007998B90120C3490871AD
:102190000020C54908600220C049C870012088702D
:1021A00005F030F9C249062000F070FA642006F00C
:1021B000EBFA59E200202021CDE900014FF4FC6345
:1021C000BCA20D2102902820FFF7ACFB4FF47A70DF
:1021D00006F0DAFA4FF47A7006F0D6FA4FF47A7015
:1021E00006F0D2FA4FF47A7006F0CEFA4FF47A7015
:1021F00006F0CAFAB2EE040AB04880ED000A02F016
:102200003DFD02F047FD0020A44988700120487080
:10221000AB499FEDAC1ADFEDAB0A9FEDAB0A40F680
:10222000AC0000F0CFFE0020A849087003209B49B5
:10223000087019E2012099494870A44800780128E3
:1022400074D10846C078012870D1B2EE040A9B48C8
:1022500080ED000A9FED9E0A9948001F80ED010A5B
:1022600040F22A3006F090FA9FED9A0A9448001F37
:1022700080ED010A9FED970A80ED000A642006F0C8
:1022800083FAB2EE040A8D4880ED000A8C49091FDA
:102290009FED8C1AF5EE000A9FED8B0A40F2465036
:1022A00000F090FE642006F06FFA9FED8A0A8448E1
:1022B000001F02E0D4E12FE1ACE080ED010A9FEDC8
:1022C000850A80ED000A642006F05EFA9FED820A1E
:1022D0007B48001F80ED010A4FF4966006F054FA27
:1022E0009FED7C0A7648001F80ED010A9FED790A78
:1022F00080ED000A642006F047FA6749062000F0E6
:10230000C5F9642006F040FA002064494870FEF7E1
:10231000DEFB4FF4FA7002F01DFD002062490860F8
:102320005E4908710420087073E0FFE76748007891
:1023300001286ED15948C07802286AD1B2EE040A49
:102340005E4880ED000A9FED620A5D48001F80ED47
:10235000010A4FF42A7006F017FA9FED5E0A5848FA
:10236000001F80ED010A9FED5B0A80ED000A6420EA
:1023700006F00AFAB2EE040A504880ED000A50490D
:10238000091F9FED501AF5EE000A9FED540A40F226
:102390006E5000F017FE642006F0F6F99FED4D0A2E
:1023A0004748001F80ED010A9FED4A0A80ED000AB0
:1023B000642006F0E9F99FED480A4148001F80EDCE
:1023C000010A4FF4966006F0DFF99FED420A3C489F
:1023D000001F80ED010A9FED3F0A80ED000A642096
:1023E00006F0D2F93E49062000F050F9642006F0CC
:1023F000CBF9002029494870FEF769FB4FF4FA70C9
:1024000002F0A8FC00202849086024490871042033
:10241000087029E1002021494870234800680B28F2
:1024200010D10846007968B904F0E0FF01201B498B
:10243000087188702B49062000F028F9642006F006
:10244000A3F968E018480068152810D113480079EE
:1024500068B904F0D7FF012010490871887022493B
:10246000062000F013F9642006F08EF953E00E48C0
:1024700000680C283BD109480079B8BB04F0B6FFCE
:1024800001200649087188701649062000F0FEF800
:10249000642006F079F93EE0450000201C00002091
:1024A000302E302067000000980000203900002006
:1024B0003F00002031332E3520670000240000202B
:1024C0000C020020CDCC4C3E0000C843830000200D
:1024D00000004843000000000000C8420000C8C3DC
:1024E0004B0000205100002057000020FFE761480A
:1024F000006816280FD16048007960B904F082FFA7
:1025000001205D49087188705C49062000F0BEF822
:10251000642006F039F9A7E002F0B0FB02F0BAFB44
:10252000002055498870012048700846C07801286D
:1025300041D19FED530A534880ED010A4FF4FA70E0
:1025400006F022F91FED1D0A4E4880ED010A1FED2D
:102550001F0A80ED000A642006F016F9B2EE080AA0
:10256000494880ED000A47491FED2A1AF5EE000A96
:102570001FED260A40F2145000F024FD642006F0FE
:1025800003F9B1EE080A404880ED000A3D49091DF3
:102590001FED341A5FED350A1FED300A4FF42F603E
:1025A00000F010FD9FED360A364880ED000AAF209E
:1025B00006F0EAF844E03048C078022840D19FEDA8
:1025C000300A304880ED010A4FF4117006F0DCF853
:1025D0001FED400A2B4880ED010A1FED420A80EDF5
:1025E000000A642006F0D0F8B2EE040A264880ED16
:1025F000000A24491FED4D1AF5EE000A1FED4E0AA0
:1026000040F2BE5000F0DEFC642006F0BDF8B1EEF2
:102610000C0A1D4880ED000A1A49091D1FED571AC2
:102620005FED580A1FED530A4FF42F6000F0CAFC0B
:102630009FED130A134880ED000AA52006F0A4F8C8
:102640001FED5C0A0F4880ED010A1FED5E0A80ED68
:10265000000A642006F098F807200749087003E094
:1026600000200549487000BF00BF322006F08CF8FA
:102670001FE50000980000201C00002057000020EB
:10268000000016C3080200202400002070B5054693
:102690000E4600240CE0315D074801F052FD00BFFA
:1026A0004021054801F082FC0128F9D1601CC4B228
:1026B000AC42F0DB70BD0000001001400CB5002002
:1026C000019000903448006840F48030324908603E
:1026D00000BF3148006800F4003000900198401CB1
:1026E0000190009818B90198B0F5A04FF1D12A488F
:1026F000006800F4003010B10120009001E00020DB
:1027000000900098012846D123484030006840F0EE
:1027100080502149403108602048006840F4404022
:102720001E4908601C48083000681B4908310860D1
:102730000846006840F4004008600846006840F41D
:10274000A05008601648091F0860081F006840F084
:102750008070091F086000BF0F48006800F000701B
:102760000028F9D040F205700E4908600A48083088
:10277000006820F003000849083108600846006836
:1027800040F00200086000BF03480830006800F015
:102790000C000828F8D10CBD003802400070004041
:1027A00008544007003C024010B5964890ED080AD6
:1027B000B5EEC00AF1EE10FA1ADB0120924908606A
:1027C00000209249C1F8B4028E4890ED080ABCEE90
:1027D000C00A10EE100A8E4948638A4890ED080A34
:1027E000BCEEC00A10EE101A894801F0BEFA25E0CE
:1027F000844890ED080AB5EEC00AF1EE10FA1DD239
:1028000000208149086001208049C1F8B4027D4858
:1028100090ED080AB1EE400ABCEEC00A10EE100AB4
:102820007B494863774890ED080AB1EE400ABCEE58
:10283000C00A10EE101A764801F097FA714890ED30
:10284000110AB5EEC00AF1EE10FA1BDB0020714947
:10285000086001207049C1F8A8026A4890ED110A89
:10286000BCEEC00A10EE100A6C490860654890ED95
:10287000110ABCEEC00A10EE101A6848343801F094
:1028800074FA26E05F4890ED110AB5EEC00AF1EE49
:1028900010FA1ED201205F49086000205E49C1F88D
:1028A000A802584890ED110AB1EE400ABCEEC00AE9
:1028B00010EE100A59490860524890ED110AB1EE25
:1028C000400ABCEEC00A10EE101A5448343801F029
:1028D0004CFA4C4890ED1A0AB5EEC00AF1EE10FA27
:1028E0001DDB01204B49091D086000204A49C1F841
:1028F000AC02444890ED1A0ABCEEC00A10EE100A71
:102900004649091D08603F4890ED1A0ABCEEC00A0E
:1029100010EE101A4148343801F029FA28E03948FD
:1029200090ED1A0AB5EEC00AF1EE10FA20D200209E
:102930003849091D086001203749C1F8AC02314807
:1029400090ED1A0AB1EE400ABCEEC00A10EE100A71
:102950003249091D08602B4890ED1A0AB1EE400A71
:10296000BCEEC00A10EE101A2C48343801F0FFF902
:10297000244890ED230AB5EEC00AF1EE10FA1ADBF6
:1029800001202749086000202049C1F8BC021D48E9
:1029900090ED230ABCEEC00A10EE100A1C498863B1
:1029A000184890ED230ABCEEC00A10EE101A184821
:1029B00001F0DDF925E0134890ED230AB5EEC00AD9
:1029C000F1EE10FA1DD200201549086001200F49D0
:1029D000C1F8BC020B4890ED230AB1EE400ABCEEF0
:1029E000C00A10EE100A0A498863064890ED230ACF
:1029F000B1EE400ABCEEC00A10EE101A044801F015
:102A0000B6F910BD68010020900242420000414228
:102A100000400140A0824142008041423418004001
:102A2000B802414210B52DED108BFE4840780128C8
:102A30007ED1FD4890ED020AFC48D0ED000A20EE60
:102A4000200A10EE101A084607F04EFD41EC190B53
:102A50009FEDF70B01F0B0FFB0EE40EAF0EE60EA58
:102A6000F14890ED010A10EE101A084607F03CFDFF
:102A700041EC1F0B53EC1E2B07F076FA41EC1D0BBB
:102A80009FEDEB0B53EC102B07F0DAF841EC1B0B2E
:102A90009FEDE70B01F090FFB0EE40EAF0EE60EA48
:102AA000E14890ED000AB1EE400A10EE101A084617
:102AB00007F01AFD41EC1F0B53EC1E2B07F054FAE4
:102AC00041EC1D0B9FEDDA0B53EC102B07F0B8F81F
:102AD00041EC1C0B53EC1B2B07F01CFC41EC1A0BBC
:102AE00053EC192B06F0F8FF41EC180B06F0C2FF6F
:102AF000D1490860CC4890ED020ACC48D0ED000ADC
:102B000020EE200A10EE101A084607F0EDFC41EC0A
:102B1000190B9FEDC70B01F04FFFB0EE40EAF0EE4E
:102B200060EAC14890ED010A10EE101A084600E074
:102B300002E107F0D9FC41EC1F0B53EC1E2B07F010
:102B400013FA41EC1D0B9FEDBA0B53EC102B07F061
:102B500077F841EC1B0B9FEDB60B01F02DFFB0EEAB
:102B600040EAF0EE60EAB04890ED000A10EE101A6C
:102B7000084607F0B9FC41EC1F0B53EC1E2B07F085
:102B8000F3F941EC1D0B9FEDAA0B53EC102B07F052
:102B900057F841EC1C0B53EC1B2B07F0BBFB41EC33
:102BA0001A0B53EC192B06F097FF41EC180B06F0AB
:102BB00061FFA14948609C4890ED020A9B48D0ED16
:102BC000000A20EE200A10EE101A084607F08CFCCE
:102BD00041EC190B9FED960B01F0EEFEB0EE40EAD2
:102BE000F0EE60EA904890ED010A10EE101A0846E7
:102BF00007F07AFC41EC1F0B53EC1E2B07F0B4F9E5
:102C000041EC1D0B9FED8A0B53EC102B07F018F8CD
:102C100041EC1B0B9FED860B01F0CEFEB0EE40EABF
:102C2000F0EE60EA804890ED000A10EE101A0846B7
:102C300007F05AFC41EC1F0B53EC1E2B07F094F9E4
:102C400041EC1D0B9FED7A0B53EC102B06F0F8FFB7
:102C500041EC1C0B53EC1B2B06F03EFF41EC1A0B16
:102C600053EC192B06F038FF41EC180B06F002FF6D
:102C7000714988606C4890ED020A6C48D0ED000AFA
:102C800020EE200A10EE101A084607F02DFC41EC49
:102C9000190B9FED670B01F08FFEB0EE40EAF0EEEE
:102CA00060EA614890ED010A10EE101A084607F03C
:102CB0001BFC41EC1F0B53EC1E2B07F055F941ECAC
:102CC0001D0B9FED5B0B53EC102B06F0B9FF41EC95
:102CD0001B0B9FED570B01F06FFEB0EE40EAF0EEDC
:102CE00060EA514890ED000AB1EE400A10EE101A69
:102CF000084607F0F9FB41EC1F0B53EC1E2B07F0C5
:102D000033F941EC1D0B9FED4A0B53EC102B06F0F1
:102D100097FF41EC1C0B53EC1B2B06F0DDFE41EC46
:102D20001A0B53EC192B06F0D7FE41EC180B06F0EA
:102D3000A1FE4149C8603DE13A4840780028FAD1F7
:102D40009FED3B0B01F038FEB0EE40CAF0EE60CADA
:102D5000354890ED010A10EE101A084607F0C4FB42
:102D600041EC1D0B53EC1C2B07F0FEF841EC1B0B48
:102D70009FED2F0B53EC102B06F062FF41EC190B6B
:102D80009FED2B0B01F018FEB0EE40CAF0EE60CACA
:102D9000254890ED000AB1EE400A10EE101A0846E0
:102DA00007F0A2FB41EC1D0B53EC1C2B07F0DCF8E9
:102DB00041EC1B0B9FED1E0B53EC102B06F040FF5C
:102DC00041EC1A0B53EC192B07F0A4FA41EC180B49
:102DD00006F050FE184908609FED150B01F0ECFD60
:102DE000B0EE40CAF0EE60CA0F4890ED010A10EE56
:102DF000101A084607F078FB41EC1D0B53EC1C2B16
:102E000007F0B2F841EC1B0B9FED090B53EC102BB4
:102E100006F016FF41EC190B9FED050B01F0CCFD00
:102E20000CE000001C00002008020020240000200C
:102E30000000000000000040F8010020B0EE40CA91
:102E4000F0EE60CA5D4890ED000A10EE101A0846D8
:102E500007F04AFB41EC1D0B53EC1C2B07F084F8E8
:102E600041EC1B0B1FED0E0B53EC102B06F0E8FE94
:102E700041EC1A0B53EC192B07F04CFA41EC180BF0
:102E800006F0F8FD4E4948601FED170B01F094FD68
:102E9000B0EE40CAF0EE60CA484890ED010A10EE6C
:102EA000101A084607F020FB41EC1D0B53EC1C2BBD
:102EB00007F05AF841EC1B0B1FED230B53EC102BC2
:102EC00006F0BEFE41EC180B1FED270B01F074FD60
:102ED000B0EE40CAF0EE60CA384890ED000A10EE3D
:102EE000101A084607F000FB41EC1D0B53EC1C2B9D
:102EF00007F03AF841EC1B0B1FED330B53EC102B92
:102F000006F09EFE41EC190B53EC182B06F0E4FD85
:102F100041EC1A0B06F0AEFD294988601FED3C0B11
:102F200001F04AFDB0EE40CAF0EE60CA234890EDD1
:102F3000010A10EE101A084607F0D6FA41EC1D0BF4
:102F400053EC1C2B07F010F841EC1B0B1FED480B4A
:102F500053EC102B06F074FE41EC180B1FED4C0BDC
:102F600001F02AFDB0EE40CAF0EE60CA134890EDC1
:102F7000000AB1EE400A10EE101A084607F0B4FA43
:102F800041EC1D0B53EC1C2B06F0EEFF41EC1B0B30
:102F90001FED590B53EC102B06F052FE41EC190BB0
:102FA00053EC182B06F098FD41EC1A0B06F062FD6D
:102FB0000349C860BDEC108B10BD00000802002062
:102FC000F80100202DE9F0472DED068B0446B0EE08
:102FD000408AF0EE608AB0EE419A0D46002600EE7F
:102FE000104AB8EEC00A28EE800ABDEEC00A10EE04
:102FF000107A00EE104AB8EEC00A29EE000ABDEEC3
:10300000C00A10EE108AE01BA0EB080900EE107A4F
:10301000B8EEC00AC8EE000AF0EE609A00EE108A20
:10302000B8EEC00AC8EE000AB0EE60AA09E0761C4D
:1030300095ED000A30EE290A85ED000A012005F021
:10304000A3FBBE42F3DB85ED008A03E0761C012082
:1030500005F09AFB09EB0700B042F7DC09E0761CAB
:1030600095ED000A30EE4A0A85ED000A012005F0D0
:103070008BFBA642F3DB9FED040A85ED000ABDEC55
:10308000068BBDE8F087000000000000042808D18E
:103090004FF0E021096941F004014FF0E022116195
:1030A00007E04FF0E021096921F004014FF0E02230
:1030B0001161704710B506F015FA012802D005F02D
:1030C0007FFE04E002480068401C0149086010BD12
:1030D0004C01002010B51548006840F470001349F9
:1030E00008601348006840F00100114908600020A2
:1030F0000F49083108600E4800680E4908400C4925
:1031000008600D48091D0860081F006820F4802031
:10311000091F0860002006490C310860FFF7CEFA4D
:103120004FF0006001498039086010BD88ED00E073
:1031300000380240FFFFF6FE103000241CB50121CC
:103140000420FEF7E9FE01211020FEF7E5FE012133
:103150000820FEF7E1FE4FF46040009001208DF85A
:10316000040000208DF8060003208DF80500694654
:103170001848FDF743FE4FF460411648FDF7B2FED4
:103180004FF47060009001208DF8040000208DF84D
:10319000060003208DF8050069460F48FDF72EFE56
:1031A0004FF470610C48FDF79DFE10200090012047
:1031B0008DF8040000208DF8060003208DF805002E
:1031C00069460648FDF71AFE10210448FDF78AFEFD
:1031D0001CBD000000080240000C0240001002402C
:1031E000F0B50C46154600210022068C4FF6FE77FE
:1031F0003E400684018B028C4FF60C7631407E1CDB
:1032000006EA03162E4331434FF6F576324044F07A
:103210000106324301830284F0BDF0B50C46154629
:10322000002100220026078C4FF6EF7C07EA0C07EE
:103230000784018B028C4FF6FF7707EA041640F6ED
:10324000FF4739404FF6FF7707EA033739434FF618
:10325000FF7707EA052739434FF65F773A4046F094
:1032600010073A4301830284F0BDF0B50C461546C1
:10327000002100220026078C4FF6FF6C07EA0C079E
:103280000784818B028C4FF6FF7707EA04264FF6FE
:103290000C7739404FF6FF7707EA03172F4339437E
:1032A0004FF2FF573A4046F480773A4381830284D5
:1032B000F0BDF0B50C461546002100220026078C13
:1032C0004EF6FF7C07EA0C070784818B028C4FF6D1
:1032D000FF7707EA043640F6FF4739404FF6FF779D
:1032E00007EA052739434FF6FF7707EA03373943E3
:1032F00045F6FF773A4046F480573A43818302848B
:10330000F0BD000030B58BB004460D4601214020D1
:10331000FEF712FE01210220FEF7FEFD09220E211A
:103320002548FDF7B3FD09220F212348FDF7AEFD27
:103330004FF44040099002208DF8280003208DF8BA
:10334000290000208DF82A0001208DF82B0009A902
:103350001948FDF753FDA8B2ADF818000020ADF8EC
:103360001A000794ADF8200006A9144800F030FDBB
:103370006020ADF804000120ADF806000020ADF893
:103380001000039001A90D4800F048FC00210B48F3
:1033900000F082FC01A9094800F088FC00210748E0
:1033A00000F0D6FC0121054800F0D6FA01210348BF
:1033B00000F0E4FA0BB030BD0004024000180040F9
:1033C00030B58BB004460D4601218020FEF7B4FDD8
:1033D00001212020FEF7A0FD092208211E48FDF74B
:1033E00055FD4FF48070099002208DF828000320CD
:1033F0008DF8290000208DF82A0001208DF82B007F
:1034000009A91548FDF7FAFCA8B2ADF8180000208C
:10341000ADF81A000794ADF8200006A90F4800F097
:10342000D7FC7020ADF804000120ADF806000220A2
:10343000ADF8100001A9094800F0F0FB0821074889
:1034400000F02AFC0121054800F086FA012103481A
:1034500000F094FA0BB030BD00140240001C004094
:1034600030B58BB004460D4601210802FEF764FD1D
:1034700001212020FEF750FD092211461E48FDF7CC
:1034800005FD4FF40070099002208DF828000320FC
:103490008DF8290000208DF82A0001208DF82B00DE
:1034A00009A91548FDF7AAFCA8B2ADF8180000203C
:1034B000ADF81A000794ADF8200006A90F4800F0F7
:1034C00087FC7020ADF804000120ADF80600022052
:1034D000ADF8100001A9094800F0A0FB0821074839
:1034E00000F0DAFB0121054800F036FA012103481B
:1034F00000F044FA0BB030BD001402400020004040
:1035000000B58BB001210846FEF736FD01210846C3
:10351000FEF702FD01211020FEF7FEFC02208DF8CF
:103520002800C001099003208DF8290001208DF8A2
:103530002A008DF82B0009A92748FDF75FFC01221E
:1035400008212548FDF7A2FC02208DF8200080020A
:10355000079003208DF8210001208DF822008DF8BE
:10356000230007A91D48FDF749FC01220B211B4838
:10357000FDF78CFC4FF6FF7005900020ADF81000B1
:10358000ADF81800ADF8120004A9154800F020FCB1
:1035900000231A460321124800F0C4FA01A800F0E3
:1035A0002AFB0020ADF80C0001A90D4800F0ECFA50
:1035B00001210B4800F0DCF901221146084800F017
:1035C00023FB0021064800F0D4FB0121044800F051
:1035D000D5F90BB000BD0000000002400010024011
:1035E0000000014000B589B001210846FEF7A4FCA7
:1035F00001210846FEF790FC02208DF820000320F0
:1036000007908DF8210001208DF822008DF823000D
:1036100007A92148FDF7F2FB012200211E48FDF712
:1036200035FC012211461C48FDF730FC4FF6FF70B7
:1036300005900020ADF81000ADF81800ADF81200AC
:1036400004A94FF0804000F0C3FB00231A46032179
:103650004FF0804000F066FA01A800F0CCFA00209C
:10366000ADF80C0001A94FF0804000F08DFA012167
:10367000880700F07DF901221146900700F0C4FA96
:1036800000214FF0804000F074FB0121880700F01A
:1036900075F909B000BD0000000002404FF0804005
:1036A000008A4FF08040008A20F001004FF08041F6
:1036B0000882704700B589B001210220FEF73CFC6A
:1036C00001210846FEF728FC02208DF82000C020CA
:1036D000079003208DF8210001208DF822008DF83D
:1036E000230007A91E48FDF789FB022206211C487A
:1036F000FDF7CCFB022207211948FDF7C7FB4FF667
:10370000FF7005900020ADF81000ADF81800ADF87E
:10371000120004A9134800F05BFB00231A460321A2
:10372000104800F0FFF901A800F065FA0020ADF89C
:103730000C0001A90B4800F027FA0121094800F00C
:1037400017F901221146074800F05EFA00210548EA
:1037500000F00FFB0121034800F010F909B000BD93
:10376000000002400004004004480088034800882C
:1037700020F001000149088070470000100400405B
:1037800000B589B001210420FEF7D6FB01210220FB
:10379000FEF7C2FB02208DF82000C0200790032016
:1037A0008DF8210001208DF822008DF8230007A953
:1037B0001E48FDF723FB022206211C48FDF766FB8D
:1037C000022207211948FDF761FB4FF6FF700590B3
:1037D0000020ADF81000ADF81800ADF8120004A9F3
:1037E000134800F0F5FA00231A460321104800F0B0
:1037F00099F901A800F0FFF90020ADF80C0001A92B
:103800000B4800F0C1F90121094800F0B1F801228C
:103810001146074800F0F8F90021054800F0A9FA20
:103820000121034800F0AAF809B000BD00040240DD
:1038300000080040044800880348008820F0010088
:1038400001490880704700001008004010B50121B0
:10385000064800F088F940B10121044800F08BF8D7
:1038600003480088401C0249088010BD000C00403D
:103870008800002010B50121064800F074F940B11D
:103880000121044800F077F803480088401C0249F1
:10389000088010BD001400408600002030B58BB0B9
:1038A00004460D4601210804FEF766FB01211020A5
:1038B000FEF732FB032205212548FDF7E7FA032234
:1038C00006212348FDF7E2FA6020099002208DF8D6
:1038D000280003208DF8290000208DF82A000120FF
:1038E0008DF82B0009A91A48FDF788FAA8B2ADF89F
:1038F00018000020ADF81A000794ADF8200006A9C2
:10390000144800F065FA6020ADF804000120ADF81D
:1039100006000020ADF81000039001A90D4800F04A
:103920007DF900210B4800F0B7F901A9094800F022
:10393000BDF90021074800F00BFA0121054800F00D
:103940000BF80121034800F019F80BB030BD00005E
:10395000001002400040014021B1028842F0800284
:10396000028004E002884FF67F731A40028070479D
:10397000CA4302827047CA430282704721B102885B
:1039800042F00102028004E002884FF6FE731A4002
:103990000280704710B504465548844208D1012181
:1039A0000846FEF7F9FA00210120FEF7F5FA9DE03E
:1039B000B4F1804F08D101210846FEF7CDFA00216D
:1039C0000120FEF7C9FA91E04A48844208D101215A
:1039D0000220FEF7C1FA00210220FEF7BDFA85E0C1
:1039E0004548844208D101210420FEF7B5FA0021A0
:1039F0000420FEF7B1FA79E04048844208D1012161
:103A00000820FEF7A9FA00210820FEF7A5FA6DE0CC
:103A10003B48844208D101211020FEF79DFA002185
:103A20001020FEF799FA61E03648844208D101215E
:103A30002020FEF791FA00212020FEF78DFA55E0B4
:103A40003148844208D101210220FEF7A5FA002165
:103A50000220FEF7A1FA49E02C48844209D1012155
:103A60000804FEF799FA00214FF48030FEF794FA2B
:103A70003CE02748844209D101214804FEF78CFA32
:103A800000214FF40030FEF787FA2FE021488442EE
:103A900009D101218804FEF77FFA00214FF480202C
:103AA000FEF77AFA22E01C48844208D10121402026
:103AB000FEF752FA00214020FEF74EFA16E01748B2
:103AC000844208D101218020FEF746FA002180209F
:103AD000FEF742FA0AE01248844207D1012180151C
:103AE000FEF73AFA0021A015FEF736FA10BD0000E5
:103AF000000001400004004000080040000C0040AD
:103B0000001000400014004000040140004001404B
:103B1000004401400048014000180040001C0040E3
:103B200000200040F0B50C4615461E46002100223C
:103B300000230189028B038C4FF6F877394021432B
:103B40004FF6FC473A4040F201173A434FF6DD7713
:103B50003B404FF6FF7707EA06172F433B430181AF
:103B600002830384F0BD30B5024600200023002408
:103B7000158A05EA0103958905EA010413B10CB120
:103B8000012000E0002030BD70B505460C462088BD
:103B900050B92389A28861882846FFF721FBE18874
:103BA000284600F0E8F825E0208804280AD1238977
:103BB000A28861882846FFF730FBE188284600F09C
:103BC000E3F817E0208808280AD12389A2886188B1
:103BD0002846FFF74AFBE188284600F0E2F809E0B2
:103BE0002389A28861882846FFF763FBE18828467D
:103BF00000F0E0F870BD002101804180012181804A
:103C00000021C180018170471AB183890B438381F0
:103C100002E083898B4383817047000070B50024E4
:103C200000220023058C4FF6FE7635400584028C79
:103C30008388048B4FF68F752C40B51E2C400D8861
:103C40002C43751E2A408D892A434D882A43104DE6
:103C5000A84202D00F4DA84213D14FF6F7752A4063
:103C6000CD892A434FF6FB752A408D882A434FF6AB
:103C7000FF652B404FF6FF552B400D8A2B434D8A95
:103C80002B43838004838D684563028470BD0000EC
:103C900000000140000401400A460021018B4FF65C
:103CA000F7731940114301837047000070B5002479
:103CB00000220023058C4FF6EF7635400584028CF8
:103CC0008388048B48F6FF752C404FF6FF452C4047
:103CD0000D884FF6FF7606EA05252C434FF6DF7573
:103CE0002A408D8906EA05152A434D8806EA0515FE
:103CF0002A43154DA84202D0144DA8421DD14FF6BB
:103D00007F752A40CD894FF6FF7606EA05152A43CE
:103D10004FF6BF752A408D8806EA05152A434FF6EF
:103D2000FF352B404FF2FF752B400D8A06EA8505C3
:103D30002B434D8A06EA85052B43838004838D68D7
:103D40008563028470BD0000000001400004014052
:103D50000A460021018B4FF2FF7319404FF6FF73A3
:103D600003EA02231943018370474163704781636B
:103D7000704741627047028B4FF6F3731A4002831B
:103D8000028B0A4302837047028B4FF2FF331A40C3
:103D90000283028B4FF6FF7303EA01231A43028367
:103DA0007047828B4FF6F3731A408283828B0A43EB
:103DB00082837047828B4FF2FF331A408283828B5B
:103DC0004FF6FF7303EA01231A4382837047000012
:103DD00000220288184B98420ED0184B98420BD004
:103DE000B0F1804F08D0164B984205D0154B984241
:103DF00002D0154B984204D14FF68F731A404B886E
:103E00001A43124B984207D0114B984204D04FF6F8
:103E1000FF431A400B891A4302804B68C3620B8828
:103E20000385054B984202D0044B984201D18B7A0E
:103E30000386012383827047000001400004014093
:103E40000004004000080040000C0040001000404A
:103E50000014004010B540F22551144800F0B3F8AA
:103E600010B340F22551114800F085F80F4800F0DA
:103E700063F930380E490A680968491C0C4B19600F
:103E80000C4941F8220018460068012802DD002094
:103E900019460860074840680649096801EB810136
:103EA00000EB41000449086010BD0000004C0040D8
:103EB0008C000020900000209800002010B540F2F7
:103EC0002551094800F07FF801280BD140F2255117
:103ED000054800F078F8012804D140F22551024845
:103EE00000F049F810BD00000050004010B540F24D
:103EF00025510B4800F067F8012810D1084800F060
:103F00001BF90849087040F22551054800F05BF89C
:103F1000012804D140F22551014800F02CF810BDD1
:103F2000004400408400002010B540F225510B48A9
:103F300000F049F8012810D1084800F0FDF80849C0
:103F4000087040F22551054800F03DF8012804D1E1
:103F500040F22551014800F00EF810BD0014014058
:103F60008300002001F40072B2F5007F00D100BF91
:103F7000CA430280704710B50022002340F66A143D
:103F8000A14200D100BF0A1201249440A3B2DC4335
:103F9000048010BD21B1828942F40052828104E084
:103FA00082894DF6FF731A408281704702460020D5
:103FB000B1F5007F00D100BF13880B400BB1012089
:103FC00000E00020704770B5024600240023002561
:103FD000002040F66A16B14200D100BFC1F342157D
:103FE00001F01F03012606FA03F3012D02D1968981
:103FF000334006E0022D02D1168A334001E0968A52
:1040000033400C12012606FA04F41688344013B12A
:104010000CB1012000E0002070BDF0B50346002483
:1040200000260025002040F66A17B94200D100BFE3
:104030001846C1F3421401F01F06012707FA06F5DE
:10404000012C01D10C3004E0022C01D1103000E031
:1040500014301AB107682F43076002E00768AF43C6
:104060000760F0BD2DE9FF4705460E460024A14636
:1040700000BFA046B08900B100BF2C8A24F4405490
:10408000F08804432C82AC8941F20C608443B088F0
:1040900031890843718908430443AC81AC8A24F414
:1040A0004074B0890443AC826846FDF785FF204820
:1040B000854202D01F48854202D1DDF80C9001E014
:1040C000DDF80890A88900F4004040B109EBC90070
:1040D00000EB091031684900B0FBF1F707E009EB8C
:1040E000C90000EB091031688900B0FBF1F76420CA
:1040F000B7FBF0F004012009642101FB1078A889C6
:1041000000F4004040B1322000EBC800B0FBF1F0F9
:1041100000F00700044308E0322000EB081064219F
:10412000B0FBF1F000F00F0004432C81BDE8FF87E5
:10413000001001400014014001468888C0F30800C7
:104140007047C1F308028280704703B401984100B0
:10415000009850EAC12018BF04204A0D18BF40F053
:10416000010040F2FF72B2EB515F08BF40F0020065
:10417000012808BF052002B07047000000000000C1
:1041800070B5C1482DED020B2DED0E8B82B0119D47
:1041900025F000449FEDBEDB9FEDBFEB84423EDB8C
:1041A000A4F140511098A1F17F6108430FD0BC48A1
:1041B000844202DC28D1109830B39DED100B02B080
:1041C000BDEC0E8B02B0BDE8704000F0AEBC9DEDC2
:1041D000100B53EC1D2B51EC100B05F0C5FE9DEDA3
:1041E000100B41EC180B53EC1E2B51EC100B05F08F
:1041F000BBFE53EC182B05F06FFC41EC100B02B02A
:10420000BDEC0E8B02B070BD0120FCF7DEFA02B0EF
:10421000BDEC0E8B02B0BDE8704000F09DBCA14823
:104220009FEDA18B844256DA9DED100BB4F1795FBE
:104230000ADA51EC100BFFF788FF042808BF00F0E2
:104240009BFC9DED100BDAE753EC102B51EC100B9F
:1042500005F08AFE41EC190B95480621B0EE490A9B
:10426000F0EE690A784400F0E4FB53EC192B51ECB2
:10427000100B05F079FE41EC1A0B8E48B0EE490A9E
:10428000F0EE690A0421784400F0D3FB53EC192BBB
:1042900051EC100B05F068FE53EC182B05F01CFCDC
:1042A00041EC100B51EC1A0B53EC102B05F0C8FC31
:1042B000CDE900019DED000B53EC102B9DED100B93
:1042C00051EC100B05F050FE9DED101B53EC112B23
:1042D00005F002FCD2E09DED100B51EC100B01F04B
:1042E00067FB53EC182B05F03DFF9FED730BCDE9F9
:1042F000000153EC102B9DED000B51EC100B05F061
:1043000033FE41EC190B6E480621B0EE490AF0EE7F
:10431000690A784400F08DFB53EC192B51EC100B1B
:1043200005F022FE41EC1B0B6648B0EE490AF0EEA8
:10433000690A0421784400F07CFB53EC192B51EC02
:10434000100B05F011FE53EC182B05F0C5FB41ECEA
:104350001C0B51EC190B03F059FF41EC180B5A4898
:104360009FED5BABA04222DC53EC1C2B51EC1B0BF2
:1043700005F066FCCDE900019DED000B51EC180B3A
:1043800053EC102B05F0F0FD53EC182B05F0A4FBBB
:1043900053EC1A2B05F0E8FD53EC1D2B05F0BAFF8A
:1043A00053EC1E2B05F0DEFE41EC100B5FE08DEDB3
:1043B000008B002000909DED000B51EC180B53EC8E
:1043C000102B05F089FB9DED000B41EC1E0B53EC0F
:1043D000102B51EC100B05F0C7FD53EC192B05F019
:1043E000C1FE53EC1E2B05F02BFC41EC190B53ECDA
:1043F0001C2B51EC1B0B05F023FC41EC1B0B53EC6D
:104400001A2B51EC190B05F0AFFD53EC1D2B05F0E9
:10441000A9FE41EC190B53EC1A2B51EC180B05F0CB
:10442000A3FD53EC1B2B05F09FFD53EC192B05F05E
:1044300071FF9DED000B41EC180B53EC1A2B51EC66
:10444000100B05F091FD9FED249B53EC192B05F00B
:1044500089FE41EC100B51EC180B53EC102B05F0BE
:1044600059FF53EC192B05F07DFE41EC100B002D8C
:104470003FF7C5AE51EC100B05F0F0FA41EC100B14
:10448000BDE60000000000000000F03F000000005A
:10449000075C143326A6913C182D4454FB21F93FA8
:1044A0000000F07F0000E03F000000000000F03F4F
:1044B000F0A80000FEA80000000000000000E03F9F
:1044C00042A8000050A800003333EF3F0000000076
:1044D0000000000000000040182D4454FB21E93F7B
:1044E00070B59B482DED020B2DED068B079D25F039
:1044F0000044A04218DC9748844202DC0AD10698A6
:1045000040B19DED060BBDEC068B02B0BDE87040DE
:1045100000F00BBB002DCCBF9FED8F0B9FED900BE0
:10452000BDEC068B02B070BD8F48A04215DD8F48F0
:10453000A042D8BF4FF0FF3458DD9DED060B51EC83
:10454000100BFFF702FE042808BF00F015FB9DEDDD
:10455000060BBDEC068B02B070BD9DED060B51EC59
:10456000100B01F025FACDE9060181489FED828B01
:10457000A0423CDD8248A0421FDD00249FED82ABBB
:104580009DED060B53EC1A2B51EC100B05F0A4FA21
:104590009DED060B41EC190B53EC1A2B51EC100B53
:1045A00005F0E2FC53EC182B05F0B4FE53EC192B8C
:1045B00005F046FBCDE9060149E09DED060B01241F
:1045C00053EC182B51EC100B05F086FA9DED060B01
:1045D00041EC190B53EC182B51EC100B05F09AFE23
:1045E00053EC192B05F02CFBCDE906012FE06848B0
:1045F000A0421FDD02249FED689B9DED060B53EC4E
:10460000192B51EC100B05F0AFFC53EC182B05F0F7
:1046100063FA9DED060B41EC180B53EC192B51EC92
:10462000100B05F077FE53EC182B05F009FBCDE9D4
:1046300006010CE09DED060B032453EC102B9FEDBF
:10464000580B51EC100B05F0FBFACDE906019DED7E
:10465000060B53EC102B51EC100B05F085FC41ECD4
:10466000180B53EC182B05F07FFC41EC190B4E484E
:104670000621B0EE490AF0EE690A784400F0D9F953
:1046800053EC182B51EC100B05F06EFC41EC180BA1
:104690004648B0EE490AF0EE690A0521784400F078
:1046A000C8F953EC192B51EC100B05F05DFC41ECF3
:1046B000100B51EC180B53EC102B002C0EDA05F0FC
:1046C0000BFA9DED061B53EC112B05F04DFC9DEDF7
:1046D000061B53EC112B05F045FD35E005F0FCF908
:1046E0009DED061B53EC112B05F03EFC41EC100B2D
:1046F0002F48784400EBC40090ED001B51EC100BE8
:1047000053EC112B05F006FE9DED061B53EC112B0F
:1047100005F000FE41EC100B2648784400EBC40085
:1047200090ED001B51EC100B53EC112B05F01AFD12
:1047300041EC100B002DA2BFBDEC068B02B070BD8A
:1047400051EC100B05F08AF941EC100B01E7000069
:10475000000010440000F07F182D4454FB21F93F65
:10476000182D4454FB21F9BF0000DC3F0000203E1F
:104770000000F33F00000000000000000000F03FD8
:104780000000E63F000000000000000000000040C4
:104790000080034000000000000000000000F83F1F
:1047A000000000000000F0BF92A5000048A5000036
:1047B000D2A400008AA4000070B56F4E2DED040B4A
:1047C0002DED048B82B0DDF824C0DDE907235C42C7
:1047D0002CF000411C4341EAD474069D22F00040B5
:1047E000B44205D86C422C4340EAD474B4420BD98D
:1047F0009DED081B9DED060B02B0BDEC048B04B0D3
:10480000BDE8704000F09BB9ACF14054A4F17F6466
:104810001C430BD0022404EAAC7444EAD27405436E
:104820009FED578B9FED582B07D015E09DED060BA4
:1048300051EC100B00F01AFA42E0002C11BF012CD1
:104840009DED060B02B0BDEC048B04BF04B070BD3F
:10485000022C38D0032C3BD00B439FED4D1B9FED1A
:104860004E0B0AD0B14218D1B04209D121F080419B
:1048700020F08040099107900FE0002A15DA10E03F
:10488000474B7B44002C08BF93ED000B0DD0012C4F
:1048900010D0022C17D0032C1AD0B0421DD1002A00
:1048A00003DAB0EE410AF0EE610A02B0BDEC048B0F
:1048B00004B070BD93ED000B51EC100B05F0CEF879
:1048C00041EC100BF1E7B0EE480AF0EE680AECE7B5
:1048D000B0EE420AF0EE620AE7E7401A00159FEDDB
:1048E000329B3C28C8BF8DED000B17DCBCF1000FDC
:1048F000BCBF10F13C0F8DED009B0FDB9DED080B55
:1049000053EC102B9DED060B51EC100B05F098F9B4
:1049100001F04EF800F0AAF9CDE90001B4B1012C84
:1049200010D0022C9FED220B53EC102B9DED000BB1
:1049300051EC100B19D005F0EDFC53EC182B05F0E1
:10494000E9FCBDE7019880F0004001909DED000B6F
:1049500053EC192B51EC100B05F0CAFA04BF0220DE
:10496000FBF733FF9DED000B9FE705F0D3FC53EC05
:10497000182B05F0F7FBA3E70000F07F0000000014
:10498000182D4454FB210940182D4454FB2109C023
:10499000182D4454FB21F9BF182D4454FB21F93F35
:1049A000BAA30000000000000000000000000000AA
:1049B000075C143326A6A13C00B52DED048BB0EEA8
:1049C000409AF0EE609A83B051EC190B05F0D6FBDB
:1049D00041EC180B18EE100A18EE901A8DED008BB2
:1049E000002818BF0120084320F00040C0F17F607C
:1049F00000F1E040C00F14D019EE101A19EE900A21
:104A00008DED009B002918BF0121084320F00040D4
:104A1000C0F17F6000F1E040C00F04BF0120FBF750
:104A2000D4FEB0EE480A03B0F0EE680ABDEC048B89
:104A300000BD70B504462DED028B4D1E00EBC50088
:104A4000B0EE408AF0EE608A90ED000B35F0060083
:104A500017D053EC182B51EC100B05F085FA41ECF4
:104A6000100B6D1E04EBC50090ED001B51EC100BFC
:104A700053EC112B05F030F841EC100B35F006002B
:104A8000E7D1022D36D0042D1CD0062D1CBFBDEC65
:104A9000028B70BD53EC182B51EC100B05F064FA2F
:104AA00094ED0A1B53EC112B05F016F853EC182B60
:104AB00005F05AFA94ED081B53EC112B05F00CF895
:104AC00041EC100B53EC182B51EC100B05F04CFA89
:104AD00094ED061B53EC112B04F0FEFF53EC182B46
:104AE00005F042FA94ED040B53EC102B04F0F4FFA4
:104AF00041EC100B53EC182B51EC100B05F034FA71
:104B000094ED021B53EC112B04F0E6FF53EC182B31
:104B100005F02AFA94ED001B53EC112B04F0DCFF96
:104B2000BDEC028B41EC100B70BD10B553EC102B9B
:104B300051EC100B04F0D0FF41EC100B10BD10B580
:104B400053EC112B51EC100B04F0C6FF41EC100B91
:104B500010BD0000000000009FED050B10B553ECE8
:104B6000102B51EC100B05F06BF841EC100B10BD45
:104B700000000000000000009FED050B10B553EC95
:104B8000102B51EC100B05F0EFF941EC100B10BDA0
:104B9000000000000000001030380A2801D2012077
:104BA00070470020704700BF70470000F0B52DED42
:104BB000028B83B006460F460025684600F012FFC0
:104BC000002447E056F8241057F82420881A0028BB
:104BD00001DB014600E0414200EE101AB8EEC00AC7
:104BE000DFED200A80EE208A684600EB840090ED1D
:104BF000000AB5EEC00AF1EE10FA18D0684600EBD4
:104C00008400D0ED000A88EE200AF7EE000A70EE6C
:104C1000608AB0EEE80A1448D0ED090AB4EEE00A62
:104C2000F1EE10FA15DD0120A040054311E00E4819
:104C300090ED070AB4EEC80AF1EE10FA06DC90ED2A
:104C4000080AB4EEC80AF1EE10FA02D20120A04020
:104C50000543641C032CB5DB284603B0BDEC028B76
:104C6000F0BD00000000804724DF000810B541ECD3
:104C7000100BFFF735FC51EC100B10BD10B50A21DD
:104C80000348FFF772F8322003F07EFD10BD0000EC
:104C90000020004010B509210348FFF766F86420A2
:104CA00003F072FD10BD0000001C00402DE9F04132
:104CB0000446E07800F0C006E07800F03F05607838
:104CC00000F0010098B1EF102846E91705EB51718B
:104CD000C910A5EBC101491C01F0FF080B48006891
:104CE00020B10A48414602683846904700BF6078C4
:104CF00000F0080030B10548406818B1B011034A0F
:104D0000516888470020BDE8F0810000240200209F
:104D100070B504460420FEF7B9F90C480470254626
:104D20004FF47A7045430120094908804FF0E02094
:104D3000006940F002004FF0E0210861084645613B
:104D4000006940F00100086170BD000048010020CA
:104D50004A01002070B5044604F0C4FB012810D0BD
:104D60000B480088844206D309480088B4FBF0F55C
:104D7000284603F009FD06480088B4FBF0F100FB6B
:104D800011444FF47A7104FB01F000F003F870BD98
:104D90004A01002070B5034600224FF0E0267569F5
:104DA0000D4E367803FB06F44FF0E026B16910E0B3
:104DB0004FF0E026B06988420BD0884202D20E1A2A
:104DC000324402E02E1A0E4432440146A24200D37D
:104DD00000E0EDE700BF70BD4801002038B5044693
:104DE00064B120208DF8000028208DF801003020CB
:104DF0008DF8020038208DF8030004E0A32204217E
:104E00006846FBF75AFC6A46042140F69E2002F0F1
:104E1000ADFA01F097FE38BD3EB5044602208DF88C
:104E20000000CA208DF80100E3208DF8020009205F
:104E30008DF803006A460421682002F097FAA32047
:104E40008DF8000004F0400048B1C0208DF801004A
:104E5000C8208DF80200C2208DF8030006E0A320D0
:104E60008DF801008DF802008DF8030004F4C07085
:104E700048B1C4208DF80400CC208DF80500C62070
:104E80008DF8060006E0A3208DF804008DF80500DB
:104E90008DF80600A3208DF807008DF808008DF826
:104EA00009006A460A2140F6A72002F05FFA04F0E2
:104EB000030018B120208DF8000002E0D8208DF802
:104EC00000006A46012140F6B62002F04FFA04F0D5
:104ED000200018B1012000F0ADF802E0002000F041
:104EE000A9F804F4C07008B304F4807060B1B22073
:104EF0008DF800008B208DF80100B6208DF802009F
:104F00009B208DF803000BE0B0208DF8000080207E
:104F10008DF80100B4208DF8020090208DF8030078
:104F20006A46042140F6A22002F020FA04F00100B3
:104F300020B3F8208DF800006A4601214FF40B6081
:104F400002F014FAFA21072000F02CFC072000F0F0
:104F5000F3FB012000F013FC642000F003FD4FF48C
:104F6000FA7000F012FDC821304800F0A3FB2820A1
:104F700000F0BCFB0A2000F0CCFB08E0D8208DF844
:104F800000006A4601214FF40B6002F0EFF904F0D3
:104F9000020018B1D9208DF8000002E0D8208DF869
:104FA00000006A46012140F23D7002F0DFF904F092
:104FB000040018B1012000F069F802E0002000F0C0
:104FC00065F804F0100018B10120FFF707FF02E0B8
:104FD0000020FFF703FF44F008001549488101F065
:104FE000B1FD00201249887304F0400018B1084652
:104FF000807B801D887304F4C07020B10C48807BD6
:10500000801D0B49887304F0140020B10848807B90
:1050100010300749887304F0030020B10448807BF6
:10502000001D0349887300203EBD000009E3CA0249
:10503000240200203EB504466CB10EA1D1E9002047
:105040008968CDE9002002916A4609214FF49760F2
:1050500002F08CF93EBD0AA2D2E900109268CDE9B7
:10506000010200916A4609214FF4976002F07EF92F
:10507000F0E70000B8AAB38DB4980D355D000000CC
:10508000B8AAAAAAB088C3C5C700000038B50446AC
:1050900064B1C0208DF80000C2208DF80100C4204A
:1050A0008DF80200C6208DF8030004E08B22042155
:1050B0006846FBF702FB6A46042140F6982002F09E
:1050C00055F901F03FFD38BD10B5C8234FF480629B
:1050D000024940F6F63001F0C9FB10BD4CDF000874
:1050E0002DE9F04F8DB00746884615469946DDE913
:1050F000166B0024002030806B49887B5A4605A936
:1051000001F080FC18B1601E0DB0BDE8F08F66485C
:10511000807A00F01400002867D09DF81400000683
:105120009DF8151040EA01409DF8161040EA012054
:105130009DF81710084328609DF8180000069DF898
:10514000191040EA01409DF81A1040EA01209DF82C
:105150001B10084368609DF81C0000069DF81D1098
:1051600040EA01409DF81E1040EA01209DF81F1002
:105170000843A8609DF8200000069DF8211040EA31
:1051800001409DF8221040EA01209DF823100843B9
:10519000E86004F11000C4B2286800140190686847
:1051A00000140290A86800140390E86800140490AA
:1051B00001984043029901FB0100039901FB0100A2
:1051C000049901FB010ABAF1706F02DBBAF1885F42
:1051D00005DD01F0B7FC00203080401E94E7B6F9F1
:1051E000000040F48070308000BF2F48807A00F0CB
:1051F000400020B305A9601C085C095D40EA01205D
:1052000000B2A8F8000005A9E01C095C05AAA01CD2
:10521000105C41EA002000B2A8F8020005A9601D58
:10522000095C201D105C41EA002000B2A8F80400CF
:10523000A01DC4B2B6F9000040F0080030801A4842
:10524000408900F4C07008B305A9601C085C095DC2
:1052500040EA012000B2388005A9E01C095C05AADB
:10526000A01C105C41EA002000B2788005A9601DF6
:10527000095C201D105C41EA002000B2B880A01D2E
:10528000C4B2B6F9000040F0700030800648807A61
:1052900000F0030018B105A90819FFF707FD4846FB
:1052A00000F056FF00202FE72402002070B588B0E0
:1052B000064601A801F006F9BDF804000021C90363
:1052C00041EA5045C4034448007A00F0030056F810
:1052D000200005904048007A00F0040010B10598C5
:1052E000404205903C48007AC0F3C10056F82000C7
:1052F00006903948007A00F0200010B1069840422C
:1053000006903548007AC0F3811056F820000790C7
:105310003148008900F4807010B10798404207902E
:105320000598C117A0FB042301FB043100FB051005
:10533000810041EA927005900698C117A0FB0423F2
:1053400001FB043100FB0510810041EA92700690D8
:105350000798C117A0FB042301FB043100FB0510D3
:10536000810041EA927007900598000E8DF80800C0
:105370000598000C8DF809000598000A8DF80A00C0
:105380000598C0B28DF80B000698000E8DF80C0041
:105390000698000C8DF80D000698000A8DF80E0096
:1053A0000698C0B28DF80F000798000E8DF8100017
:1053B0000798000C8DF811000798000A8DF812006C
:1053C0000798C0B28DF8130002AA0C214FF4257083
:1053D00001F0CCFF08B070BD2402002030B585B0CC
:1053E000044616A207CA02AB07C3C82C03DD4FF060
:1053F000FF3005B030BDC82090FBF4F0401E85B2F0
:10540000280A8DF80000E8B28DF801006A460221F2
:1054100040F2162001F0AAFF10B14FF0FF30E8E78C
:1054200002AA0C2140F6C12001F0A0FF10B14FF0FC
:10543000FF30DEE7044884810020DAE7FEF2ABC4E7
:10544000AAF1DFDFBBAFDFDF240200201FB5044677
:105450004848007A00F0030054F8200001904548C5
:10546000007A00F0040010B10198404201904148D8
:10547000007AC0F3C10054F8200002903D48007A41
:1054800000F0200010B10298404202903948007AA2
:10549000C0F3811054F8200003903648008900F4CE
:1054A000807010B10398404203903349019880FB0B
:1054B0000101800F40EA810001902F49029880FB92
:1054C0000110820042EA917002902B49039880FB00
:1054D0000110820042EA917003900198000E8DF84D
:1054E00000000198000C8DF801000198000A8DF869
:1054F00002000198C0B28DF803006A4604214FF4FF
:10550000747001F033FF18B14FF0FF3004B010BDDC
:105510000298000E8DF800000298000C8DF8010032
:105520000298000A8DF802000298C0B28DF80300BC
:105530006A4604214FF4757001F018FF10B14FF066
:10554000FF30E3E70398000E8DF800000398000C8D
:105550008DF801000398000A8DF802000398C0B28C
:105560008DF803006A4604214FF4767001F0FEFEC8
:10557000CCE700002402002009E3CA0210B586B07F
:10558000044647A00068039046A00068029046A029
:105590000068019045A00068009004F0030003A992
:1055A000085C8DF8140003A8C4F3C101405C8DF8B9
:1055B000150003A8C4F38111405C8DF8160004F0B7
:1055C000030002A9085C8DF8100002A8C4F3C10111
:1055D000405C8DF8110002A8C4F38111405C8DF885
:1055E000120005AA032140F2264001F0BFFE18B1C7
:1055F0004FF0FF3006B010BD04AA032140F22A404C
:1056000001F0B4FE10B14FF0FF30F3E701980590C0
:105610000098049004F0040058B19DF8140040F084
:1056200001008DF814009DF8100040F001008DF885
:10563000100004F0200058B19DF8150040F0010062
:105640008DF815009DF8110040F001008DF8110053
:1056500004F4807058B19DF8160040F001008DF8F8
:1056600016009DF8120040F001008DF8120005AA06
:1056700003214FF4886001F079FE10B14FF0FF3044
:10568000B8E704AA032140F2314001F06FFE10B1E7
:105690004FF0FF30AEE7064804810020AAE7000083
:1056A0004CCD6C000CC92C003656760026466600A0
:1056B00024020020F8B505460E464FF47A7095FB9B
:1056C000F0F000FB06F4200E8DF80000200C8DF8A1
:1056D0000100200A8DF80200E0B28DF803006A464E
:1056E00004214FF4AE7001F041FEF8BD38B5044618
:1056F000052094FBF0F084B220128DF80000E0B297
:105700008DF801006A4602214FF4AD7001F02EFEC3
:1057100038BD38B50446052094FBF0F084B2201261
:105720008DF80000E0B28DF801006A4602214FF4C6
:10573000AC7001F01BFE38BD38B504460020009067
:1057400004F0010020B19DF8000040F0300000900E
:1057500004F0020020B19DF8000040F00C00009021
:1057600004F0040020B19DF8000040F00300009018
:105770006A4601214FF4A47001F0F8FD38BD38B538
:105780000446012C01DA012402E0042C00DD04248B
:10579000601EC0B200906A46012140F24F1001F035
:1057A000E5FD38BDF0B52DED028B83B006460F4602
:1057B00006F0070010B1B7F5C86F05DD4FF0FF30F8
:1057C00003B0BDEC028BF0BD00EE107AB8EE400ADB
:1057D000DFED5B0A80EE208A01A800F04DFE9DF807
:1057E0000400022806D0042817D0082828D0102842
:1057F0004CD138E09FED530A28EE000ABCEEC00AF7
:1058000010EE100A84B29FED500A28EE000ABCEE9A
:10581000C00A10EE100A85B23BE09FED4C0A28EE5C
:10582000000ABCEEC00A10EE100A84B29FED480ACE
:1058300028EE000ABCEEC00A10EE100A85B228E07D
:105840009FED440A28EE000ABCEEC00A10EE100AD2
:1058500084B29FED410A28EE000ABCEEC00A10EEA9
:10586000100A85B215E09FED3D0A28EE000ABCEE55
:10587000C00A10EE100A84B29FED390A28EE000A21
:10588000BCEEC00A10EE100A85B202E04FF0FF3005
:1058900096E700BF20128DF80800E0B28DF80900ED
:1058A00028128DF80A00E8B28DF80B0006F001000E
:1058B000A0B102AA02214FF4EA7001F057FD10B125
:1058C0004FF0FF307CE70DF10A0202214FF4927095
:1058D00001F04CFD10B14FF0FF3071E706F002000F
:1058E000A0B102AA02214FF4EC7001F03FFD10B10B
:1058F0004FF0FF3064E70DF10A0202214FF494707B
:1059000001F034FD10B14FF0FF3059E706F004000C
:10591000A0B102AA02214FF4EE7001F027FD10B1F0
:105920004FF0FF304CE70DF10A0202214FF4967060
:1059300001F01CFD10B14FF0FF3041E700203FE7C0
:10594000000048430000804600004046000000463A
:105950000000C045000080450000404500000045B3
:105960000000C04438B50446052094FBF0F085B231
:1059700028128DF80000E8B28DF801006A46022175
:105980004FF4EF7001F0F2FC38BD38B50446052045
:1059900094FBF0F085B228128DF80000E8B28DF883
:1059A00001006A4602214FF4ED7001F0DFFC38BDC2
:1059B00082B0CDE9000121F0004001909DED000B87
:1059C00002B051EC100B704700BF054A128802F07C
:1059D0004002002AF9D0C2B2014B9A807047000001
:1059E000001001407CB505462E494968087801AB96
:1059F00004220D21FCF758F808B107207CBD9DF862
:105A00000700C0F301109DF8041001F0E00140EA26
:105A1000E1008DF800009DF80700C0F381009DF8BB
:105A2000051001F0E00140EAE1008DF801009DF869
:105A3000070000F003009DF8061001F0E00140EAC5
:105A4000E1008DF80200002427E01DF8040030B9C1
:105A50009FED150A05EB840080ED000A1BE09FED29
:105A6000130A05EB840080ED000A0BE005EB8400CF
:105A700090ED000ADFED0E0A20EE200A05EB84000F
:105A800080ED000A1DF80400401EC0B20DF80400AD
:105A90000028EBD100BF601CC4B2032CD5DB002072
:105AA000ACE700009C000020000000007B14AE3E2C
:105AB0001D5A843F2DE9F04F87B005460C469146AC
:105AC00001208DF8100000208DF81100FE4A1268A8
:105AD000917CFD4A5268107804AB0222FCF78AF8E8
