:1005480057656C636F6D6520746F20757365210046
:0A0558004552524F52200020670068
:10056200041100000000040900000000040D000056
:070572000000010800C100B8
:100280007590F012057A7F801205927BFF7A0579CE
:10029000481204E27FE87E031205081205D0C2AFBF
:1002A0001203E0D2AF1205BC3000127FC0120592DB
:1002B0007BFF7A0579581204E2C29780E1D2977FDA
:1002C000C0120592E47BE87A03F9F8AF10AE0FADE7
:1002D0000EAC0D12045DEF2430FF1205A7E47BE89D
:1002E0007A03F9F8AF10AE0FAD0EAC0D12045DAC91
:1002F00000AD01AE02AF03E47B64FAF9F812045DCD
:10030000EF2430FF1205A7E47B64FAF9F8AF10AED2
:100310000FAD0EAC0D12045DAC00AD01AE02AF032B
:10032000E47B0AFAF9F812045DEF2430FF1205A706
:10033000E47B0AFAF9F8AF10AE0FAD0EAC0D120463
:100340005DEB2430FF1205A77BFF7A05795F12046D
:04035000E202029E25
:1005BC0020B2107F057E0012050820B20630B2FD75
:0405CC001205D02222
:1003E0001204A18F108E0F8D0E8C0DC3E510950C8D
:1003F000F510E50F950BF50FE50E950AF50EE50DD9
:100400009509F50DE4FFFEFDFCAB10AA0FA90EA89F
:100410000DD3120189403CAF10AE0FAD0EAC0DEC08
:100420001200A3E4FBFA79C878431200061200E137
:10043000E48F108E0FF50EF50D7F887E13FDFCAB5B
:1004400010AA0FA90EA80DD31201894003D20022D1
:0D045000C20022E4F510F50FF50EF50D22A7
:0C05D0001204A18F0C8E0B8D0A8C0922E6
:10050800E4FDFCC3ED9FEC9E5015E4FBFA0BBB0029
:0F051800010AEB647B4A70F50DBD00010C80E415
:0105270022B1
:0305DC00000022FA
:1004A100D2B11205DCC2B07F007E007D007C00D29B
:1004B100AF20B1FDC2AFE4FBD2B0780112019FC2FF
:1004C100B030B10DEF2401FFE43EFEE43DFDE43C1C
:1004D100FC0BBB18E3D2B0ED6480FD1205DCC2B0A9
:0104E10022F8
:10052800E4FDFCC3ED9FEC9E5015E4FBFA0BBB0009
:0F053800010AEB647B4A70F50DBD00010C80E4F5
:010547002291
:10059200A907C2A67F017E00120528D2A789801270
:0505A2000528C2A7229C
:1005A700A907D2A67F017E001205288980D2A7124B
:0505B7000528C2A72287
:1004E2008B158A168917AB15AA16A917120162FF76
:1004F200D3940040101205A774012517F517E435AF
:0605020016F51680E1224F
:10057A00C2A7C2A57F381205927F0C1205927F0688
:08058A001205927F01020592A7
:10000300020157EC5D046005E85904700302014DD9
:10001300120118580460F6EC4860F2EC7004FDFE1F
:10002300FF22C860DB2481C85009C39860025006D0
:100033000201549850CAF582E9294B4A7005AB82F4
:1000430002014375F0007C1A7880C3EF9BEE9AEDB2
:1000530099400DC3EF9BFFEE9AFEED99FDE842F048
:10006300DC23ACF0D0E0FFD0E0FED0E0FDAB82209B
:10007300E7101BEB60BAEC2CFCEF33FFEE33FEED25
:1000830033FD02012FE803F830E705C0F075F000F7
:10009300EF2FFFEE33FEED33FD40B830E7C280AA09
:1000A30075F020800E75F010800575F0087D007ED8
:1000B300007F003392D530D50312017BEC3340101F
:1000C300EF33FFEE33FEED33FDEC33FCD5F0ED22E1
:0E00D300E5F0247EA2D513CC92E7CDCEFF221D
:1000E100EDD2E7CD33EC3392D524814006E4FFFE17
:1000F100FDFC22FCE4CFCECDCC24E0501174FF8076
:10010100EDC3CC13CCCD13CDCE13CECF13CF047012
:07011100F030D5DE02017B96
:10011800E9D2E7C933E833F892D5EDD2E7CD33EC2D
:0701280033FC5002B2D522A6
:10012F00EC30E7100FBF000C0EBE00080DBD000431
:10013F000BEB6014A2D5EB13FCED92E7FD2274FFDD
:10014F00FCFDFEFF22E480F8A2D574FF13FC7D8036
:03015F00E480EF4A
:03000000020354A4
:0C035400787FE4F6D8FD75812002039B41
:10016200BB010689828A83E0225002E722BBFE029B
:09017200E32289828A83E49322CE
:10045D00C2D5E830E70FB2D5E4C39BFBE49AFAE4CA
:10046D0099F9E498F8EC30E717B2D512049312011C
:10047D00EEE4C39BFBE49AFAE499F9E498F880035F
:10048D001201EE30D50DE4C39FFFE49EFEE49DFD09
:04049D00E49CFC22BD
:0E017B00C3E49FFFE49EFEE49DFDE49CFC2295
:10018900EB9FF5F0EA9E42F0E99D42F0EC6480C8ED
:0601990064809845F0228D
:10019F00E8600FEFC333FFEE33FEED33FDEC33FCBE
:0301AF00D8F12262
:10036000020280E493A3F8E493A34003F68001F231
:1003700008DFF48029E493A3F85407240CC8C3339E
:10038000C4540F4420C8834004F456800146F6DF6D
:10039000E4800B0102040810204080900562E47E96
:1003A000019360BCA3FF543F30E509541FFEE49362
:1003B000A360010ECF54C025E060A840B8E493A329
:1003C000FAE493A3F8E493A3C8C582C8CAC583CA54
:1003D000F0A3C8C582C8CAC583CADFE9DEE780BE0C
:010579000081
:1001B20075F008758200EF2FFFEE33FECD33CDCC04
:1001C20033CCC58233C5829BED9AEC99E582984087
:1001D2000CF582EE9BFEED9AFDEC99FC0FD5F0D664
:1001E200E4CEFBE4CDFAE4CCF9A88222B800C1B98E
:1001F2000059BA002DEC8BF084CFCECDFCE5F0CBCC
:10020200F97818EF2FFFEE33FEED33FDEC33FCEB04
:1002120033FB10D703994004EB99FB0FD8E5E4F9BF
:10022200FA227818EF2FFFEE33FEED33FDEC33FCAC
:10023200C933C910D7059BE99A4007EC9BFCE99AA0
:10024200F90FD8E0E4C9FAE4CCFB2275F010EF2FE5
:10025200FFEE33FEED33FDCC33CCC833C810D707E5
:100262009BEC9AE899400AED9BFDEC9AFCE899F820
:0E0272000FD5F0DAE4CDFBE4CCFAE4C8F922B3
:00000001FF
