:0D077F003F065B4F666D7D077F6F00FF40FA
:10066C00043900000000042F0000000004350000D5
:10067C0000000233000001240001250001260001C6
:10068C002700012800012900012C00012E00C101C6
:06069C00C100022A01AEBC
:0C078C00C2AF53E71843E70143E78022A7
:0907AF0053E77FE4F5E6D2AF2226
:0B07A40012078C75E64675E6B90022CE
:10070C00AD07AC06C2AF8CE3EDF5E453E5F843E579
:0C071C00011207A41207AFD2AFAFE22217
:10075A00EE54FEFEF5E3E4F5E453E5F843E503124F
:05076A0007A40207AF27
:10072800AB07AA06C2AF8AE3EBF5E453E5F843E565
:0C073800028DE21207A41207AFD2AF221C
:1006C900E52AF521852B227F007E2012075AAD21CC
:1006D9000F7E20120728AD220F120728AD2D7F604B
:0306E900020728DD
:1006A3007F017E2012070C8F217F0212070C8F22FD
:1006B3007F6012070C8F2DE521FE7C00E42522F5D7
:0606C3002BEC3EF52A229B
:100744001206A3E52D6403600C752A01752BAE75A2
:060754002D031206C9226C
:1002C70020B2107F057E001206EC20B20630B2FD88
:1002D70012079820B35C7F197E001206EC20B352F8
:1002E700D200E4F523C3E52B94E7E52A94035008ED
:1002F700052BE52B7002052A1206C975240CAE2AB8
:10030700AF2B7C007D6412016D8F25AE2AAF2B7C4D
:10031700007D6412016D7E007F0ACFCDCFCECCCE9B
:1003270012016D8F26AE2AAF2B7C007D0A12016D5C
:100337008D2720B45C7F197E001206EC20B452D2C0
:1003470000E4F523D3E52B9401E52A94004008E562
:100357002B152B7002152A1206C975240CAE2AAF6D
:100367002B7C007D6412016D8F25AE2AAF2B7C009C
:100377007D6412016D7E007F0ACFCDCFCECCCE1229
:10038700016D8F26AE2AAF2B7C007D0A12016D8D81
:0203970027221B
:1003990012074412076F75240C75250C75260C7508
:1003A900270C7FE87E031206EC120798C2AF1204ED
:1003B90055D2AF1202C70523E523C3940A4005E4C9
:1003C900F523C2002000E5300104C2978074D2975A
:1003D900E47BE87A03F9F8AF38AE37AD36AC3512BD
:1003E90005E78F24E47BE87A03F9F8AF38AE37AD37
:1003F90036AC351205E7AC00AD01AE02AF03E47BC4
:1004090064FAF9F81205E78F25E47B64FAF9F8AF85
:1004190038AE37AD36AC351205E7AC00AD01AE02EA
:10042900AF03E47B0AFAF9F81205E78F26E47B0AA1
:10043900FAF9F8AF38AE37AD36AC351205E7AF0388
:0C0449008F277F647E001206EC0203B5D2
:1004550012062B8F388E378D368C35C3E53895329D
:10046500F538E5379531F537E5369530F536E53527
:10047500952FF535E4FFFEFDFCAB38AA37A936A864
:1004850035D31201D0405FAF38AE37AD36AC35EC61
:100495001200AEC004C005C006C007AC2AAD2BE4EF
:1004A5001200B3A804A905AA06AB07D007D006D049
:1004B50005D0041200111200ECE48F388E37F536A2
:1004C500F5357F887E13FDFCAB38AA37A936A835EC
:1004D500D31201D0400DD201752405E4F525F5268A
:1004E500F52722C20122E4F538F537F536F5352230
:0C07980012062B8F328E318D308C2F22F8
:10076F00758901758CFC758A18D28CD2A9D2AF22EB
:03000B000205816A
:10058100C0E0C083C082C0D0758CFC758A18052C70
:10059100E52CC394044003752C00E52C146016145B
:1005A100601F14602824037034D2A5D2A4D2A3C240
:1005B100A2E5248022C2A3D2A5D2A4D2A2E525809D
:1005C10016C2A4D2A5D2A3D2A2E526800AC2A5D280
:1005D100A4D2A3D2A2E52790077F93F580D0D0D0F3
:0605E10082D083D0E0325D
:1006EC00E4FDFCC3ED9FEC9E5015E4FBFA0BBB0044
:0F06FC00010AEB647B4A70F50DBD00010C80E430
:01070B0022CB
:03000300000022D8
:10062B00D2A1120003C2A07F007E007D007C00D20D
:10063B00AF20A1FDC2AFE4FBD2A078011201E6C24C
:10064B00A030A10DEF2401FFE43EFEE43DFDE43CB0
:10065B00FC0BBB18E3D2A0ED6480FD120003C2A01B
:01066B00226C
:10000E00020162EC5D046005E859047003020158B8
:10001E00120123580460F6EC4860F2EC7004FDFE09
:10002E00FF22C860DB2481C85009C39860025006C5
:10003E0002015F9850CAF582E9294B4A7005AB82DE
:10004E0002014E75F0007C1A7880C3EF9BEE9AED9C
:10005E0099400DC3EF9BFFEE9AFEED99FDE842F03D
:10006E00DC23ACF0D0E0FFD0E0FED0E0FDAB822090
:10007E00E7101BEB60BAEC2CFCEF33FFEE33FEED1A
:10008E0033FD02013AE803F830E705C0F075F000E1
:10009E00EF2FFFEE33FEED33FD40B830E7C280AAFE
:1000AE0075F020800E75F010800575F0087D007ECD
:1000BE00007F003392D530D5031201C2EC334010CD
:1000CE00EF33FFEE33FEED33FDEC33FCD5F0ED22D6
:0E00DE00E5F0247EA2D513CC92E7CDCEFF2212
:1000EC00EDD2E7CD33EC3392D524814006E4FFFE0C
:1000FC00FDFC22FCE4CFCECDCC24E0501174FF806B
:10010C00EDC3CC13CCCD13CDCE13CECF13CF047007
:07011C00F030D5DE0201C244
:10012300E9D2E7C933E833F892D5EDD2E7CD33EC22
:0701330033FC5002B2D5229B
:10013A00EC30E7100FBF000C0EBE00080DBD000426
:10014A000BEB6014A2D5EB13FCED92E7FD2274FFD2
:10015A00FCFDFEFF22E480F8A2D574FF13FC7D802B
:03016A00E480EF3F
:030000000204F502
:0C04F500787FE4F6D8FD75813C02053CE0
:10016D00BC000BBE0029EF8DF084FFADF022E4CC76
:10017D00F875F008EF2FFFEE33FEEC33FCEE9DEC3F
:10018D00984005FCEE9DFE0FD5F0E9E4CEFD22ED85
:10019D00F8F5F0EE8420D21CFEADF075F008EF2FCF
:1001AD00FFED33FD4007985006D5F0F222C398FDC0
:0501BD000FD5F0EA225D
:1005E700C2D5E830E70FB2D5E4C39BFBE49AFAE43F
:1005F70099F9E498F8EC30E717B2D512061D120204
:1006070035E4C39BFBE49AFAE499F9E498F880038C
:1006170012023530D50DE4C39FFFE49EFEE49DFD35
:04062700E49CFC2231
:0E01C200C3E49FFFE49EFEE49DFDE49CFC224E
:1001D000EB9FF5F0EA9E42F0E99D42F0EC6480C8A6
:0601E00064809845F02246
:1001E600E8600FEFC333FFEE33FEED33FDEC33FC77
:0301F600D8F1221B
:10050100020399E493A3F8E493A34003F68001F274
:1005110008DFF48029E493A3F85407240CC8C333FB
:10052100C4540F4420C8834004F456800146F6DFCA
:10053100E4800B010204081020408090066CE47EE8
:10054100019360BCA3FF543F30E509541FFEE493BF
:10055100A360010ECF54C025E060A840B8E493A386
:10056100FAE493A3F8E493A3C8C582C8CAC583CAB1
:10057100F0A3C8C582C8CAC583CADFE9DEE780BE69
:0106A2000057
:1001F90075F008758200EF2FFFEE33FECD33CDCCBD
:1002090033CCC58233C5829BED9AEC99E58298403F
:100219000CF582EE9BFEED9AFDEC99FC0FD5F0D61C
:10022900E4CEFBE4CDFAE4CCF9A88222B800C1B946
:100239000059BA002DEC8BF084CFCECDFCE5F0CB84
:10024900F97818EF2FFFEE33FEED33FDEC33FCEBBD
:1002590033FB10D703994004EB99FB0FD8E5E4F978
:10026900FA227818EF2FFFEE33FEED33FDEC33FC65
:10027900C933C910D7059BE99A4007EC9BFCE99A59
:10028900F90FD8E0E4C9FAE4CCFB2275F010EF2F9E
:10029900FFEE33FEED33FDCC33CCC833C810D7079E
:1002A9009BEC9AE899400AED9BFDEC9AFCE899F8D9
:0E02B9000FD5F0DAE4CDFBE4CCFAE4C8F9226C
:00000001FF
