:020000040800F2
:10000000E05B002031030008390300083B030008CF
:100010003D0300083F030008410300080000000002
:10002000000000000000000000000000790200084D
:100030004503000800000000CD020008A92A0008BE
:100040004B0300084B0300084B0300084B03000858
:100050004B0300084B0300084B0300084B03000848
:100060004B0300084B0300084B0300084B03000838
:100070004B0300084B0300084B0300084B03000828
:100080004B0300084B0300084B0300084B03000818
:100090004B0300084B0300084B0300084B03000808
:1000A0004B0300084B0300084B0300084B030008F8
:1000B000913000085D310008293200084B03000828
:1000C0004B0300084B0300084B0300084B030008D8
:1000D0004B0300084B030008E13800084B030008FD
:1000E0004B0300084B0300084B0300084B030008B8
:1000F0004B0300084B0300084B0300084B030008A8
:100100004B0300084B030008413200084B03000872
:1001100049380008B13800084B030008693200086C
:100120004B0300084B0300084B0300084B03000877
:100130004B0300084B0300084B0300084B03000867
:100140004B0300084B0300084B0300084B03000857
:100150004B0300084B0300084B0300081D3900083F
:100160004B0300084B0300084B0300084B03000837
:100170004B0300084B0300084B0300084B03000827
:100180004B0300084B03000800F002F800F064F88D
:100190000AA090E8000C82448344AAF10107DA45E2
:1001A00001D100F059F8AFF2090EBAE80F0013F0D0
:1001B000010F18BFFB1A43F001031847ACAB000056
:1001C000CCAB00000A444FF0000C10F8013B13F0D8
:1001D000070408BF10F8014B1D1108BF10F8015BA0
:1001E000641E05D010F8016B641E01F8016BF9D193
:1001F00013F0080F1EBF10F8014BAD1C0C1B09D1EA
:100200006D1E58BF01F801CBFAD505E014F8016B5B
:1002100001F8016B6D1EF9D59142D6D370470000ED
:100220000023002400250026103A28BF78C1FBD8FF
:10023000520728BF30C148BF0B607047642900F0E7
:10024000F380732900F04A83002070471FB509F03E
:10025000B4FE1FBD10B510BD00F0DEFB1146FFF768
:10026000F5FF05F047FC00F0FCFB03B4FFF7F2FFDD
:1002700003BC04F090F900002A4B19680868B0E844
:10028000F04F80F30988BFF36F8F4FF0000080F3C9
:10029000118870470000000006480068006880F37D
:1002A000088862B661B6BFF34F8FBFF36F8F00DF70
:1002B00000BF00BF08ED00E0DFF80C00016841F46A
:1002C00070010160704700BF88ED00E0EFF3098026
:1002D000BFF36F8F134B1A681EF0100F08BF20ED8D
:1002E000108A20E9F04F106008B44FF0500080F3FE
:1002F0001188BFF34F8FBFF36F8F08F04FF94FF0A6
:10030000000080F3118808BC19680868B0E8F04F55
:100310001EF0100F08BFB0EC108A80F30988BFF3FD
:100320006F8F7047D4000020EFF305807047000006
:100330000948804709480047FEE7FEE7FEE7FEE779
:10034000FEE7FEE7FEE7FEE7FEE7FEE704480549B5
:10035000054A064B70470000C92A000889010008B9
:10036000E0550020E05B0020E0570020E05700202F
:10037000704710B54C1084EA530404D54042C1F1D3
:10038000000138BF491E1B4204D55242C3F100038D
:1003900038BF5B1E00F09DF914F0804F04D040423E
:1003A000C1F1000138BF491E14F0004F04D0524281
:1003B000C3F1000338BF5B1E10BD00000FB4044939
:1003C00010B503AA029800F08DFA10BC5DF814FB7A
:1003D0005001002070B50C460546012A05D028784A
:1003E000800600D5EA69002302E0012305E05B1CDA
:1003F000934202D2E05C0028F9D1A869E618C01A3D
:10040000A861286A184428622846AFF3008004E0F7
:10041000D5E9012114F8010B9047B442F8D32846DE
:10042000AFF3008070BD00002DE9F04106460024C6
:1004300010687529314616A510D0AFF3008000284A
:1004400002DA404213A507E031688A0701D512A5F8
:1004500002E0490704D511A5012401E0AFF30080B3
:1004600000210A2206F1240709E0B0FBF2FCB0FBF0
:10047000F2F302FB1C00303078541846491C002867
:10048000F3D123462A463046BDE8F04100F0A3B937
:10049000000000002D0000002B00000020000000E4
:1004A0002DE9F05F894604464FF0000ADFF824B1D9
:1004B000FB44C0F820A02046E168884700287DD092
:1004C000252806D0D4E901219047206A401C2062EB
:1004D000F1E700255F462046E16888472028064668
:1004E00007DB312E05D2B81910F8200C08B10543EE
:1004F000F1E7A80701D525F00405C4F81CA00027E2
:10050000C4F818A02A2E09D0304604F03DF838B3BC
:1005100004EB8708303EC8F8186019E059F8041B4E
:10052000204604EB87029161E1688847012F064667
:1005300018D1E069002820DA25F020051DE0D8F860
:10054000180000EB800006EB40003038C8F81800B7
:100550002046E1688847064604F016F80028EED1E8
:10056000012F0AD02E2E08D12046E16888477F1C33
:100570000646022F45F02005C4DBA069002803DAF7
:10058000404245F00105A061E80701D025F01005C3
:10059000A6B1A6F14100192802D8203645F400651D
:1005A0004A463146204625604D46FFF747FE60B17A
:1005B000012807D0ED1D25F0070000E007E000F15D
:1005C000080978E705F1040975E730467AE7206AFB
:1005D000BDE8F09F62A7000040EA010310B59B0749
:1005E0000FD1042A0DD310C808C9121F9C42F8D09D
:1005F00020BA19BA884201D9012010BD4FF0FF304E
:1006000010BD1AB1D30703D0521C07E0002010BD63
:1006100010F8013B11F8014B1B1B07D110F8013BEF
:1006200011F8014B1B1B01D1921EF1D1184610BDD0
:10063000032A40F2308010F0030C00F0158011F80E
:10064000013BBCF1020F624498BF11F801CB00F8E6
:10065000013B38BF11F8013BA2F1040298BF00F83A
:1006600001CB38BF00F8013B11F0030300F04C81CF
:10067000083AC0F0088051F8043B083A51F804CB1E
:10068000A0E80810F5E7121D5CBF51F8043B40F8E4
:10069000043BAFF30080D20724BF11F8013B11F8EF
:1006A00001CB48BF11F8012B24BF00F8013B00F833
:1006B00001CB48BF00F8012B704702F0FF0343EA6B
:1006C000032242EA024200F053B970477047704774
:1006D000704753EA020C00F069802DE9F04B4FF0AF
:1006E0000006002B1FBFB3FA83F503FA05F424FAC2
:1006F00005F65E4012BF1643B2FA82F502FA05F41F
:10070000C5F120051EBF22FA05FC44EA0C04203581
:1007100056EA044C4FEA144418BF641C4FF000081A
:100720004FF00009904271EB030C39D3002919BF37
:10073000B1FA81F701FA07F6B0FA80F700FA07F686
:10074000C7F120071EBF20FA07FC46EA0C06203737
:10075000B6FBF4FCA7EB0507103F07F01F0BCBF12E
:1007600020060CFA0BFB2CFA06F644BFB346002613
:10077000202FA4BF5E464FF0000B5BEA060C08BFBB
:100780004FF0010B19EB0B09ABFB027C48EB0608A1
:10079000C01B06FB02CC0BFB03CC71EB0C01C1E7C9
:1007A0000B46024641464846BDE8F08B13B54FF074
:1007B00000004FF00001AFF30080BDE81C4070471F
:1007C00010B500F0F5F8006810BD10B5044600F053
:1007D000EFF8046010BD2DE9F0470D4699469246AA
:1007E000044600F124080168880604D5E06921F078
:1007F0001001216000E00120A84201DD471B00E05C
:100800000027A1697A1902EB0900081AA061207873
:10081000C00602D42046AFF30080002608E0D4E9E9
:1008200001211AF806009047206A401C761C2062BD
:100830004E45F4DB2078C0060AD52046AFF3008091
:1008400006E0D4E9012130209047206A401C206254
:10085000381EA7F10107F4DC07E0D4E9012118F8FC
:1008600005009047206A401C2062281EA5F1010562
:10087000F3DC2046AFF300802078000602D502208A
:10088000BDE8F0870120FBE701694A1C0261087896
:10089000704700B58FB0CDE90131002105910549C0
:1008A0007944CDE9031011466846FFF7F9FD0FB012
:1008B00000BD0000E5FFFFFF10B5436913B1AFF3C2
:1008C000008001E0FFF786FD012010BD127800F1E5
:1008D00024010A7000224A700122EDE711684FF0EE
:1008E000FF32E9E7074B70B50D467B44FFF7D1FFB8
:1008F0000446284600F060F810B14FF0FF3070BD9C
:10090000204670BDCB4A000010B5203AC0F00B80E5
:10091000B1E81850203AA0E81850B1E81850A0E803
:100920001850BFF4F5AF5FEA027C24BFB1E818505D
:10093000A0E8185044BF18C918C0BDE810405FEACD
:10094000827C24BF51F8043B40F8043B08BF704749
:10095000D20728BF31F8023B48BF11F8012B28BF4E
:1009600020F8023B48BF00F8012B70474FF000020F
:100970000429C0F0128010F0030C00F02380CCF1A9
:10098000040CBCF1020F18BF00F8012BA8BF20F81F
:10099000022BA1EB0C0100F015B85FEAC17C24BF6B
:1009A00000F8012B00F8012B48BF00F8012B70471D
:1009B0000048704780550020007B00F080007047A1
:1009C0004FF0000200B5134694469646203922BFE8
:1009D000A0E80C50A0E80C50B1F12001BFF4F7AF33
:1009E000090728BFA0E80C5048BF0CC05DF804EB15
:1009F000890028BF40F8042B08BF704748BF20F883
:100A0000022B11F0804F18BF00F8012B7047000037
:100A100000487047805500207546FFF7F9FFAE4645
:100A200005006946534620F00700854618B020B5FA
:100A3000FFF78CFCBDE820404FF000064FF00007A8
:100A40004FF000084FF0000B21F00701AC46ACE876
:100A5000C009ACE8C009ACE8C009ACE8C0098D46E3
:100A6000704710B50446AFF300802046BDE8104043
:100A7000FFF7FBBB10B54FF4407000F063FEA820F9
:100A800003F03EFE00F021F84FF47A7003F05AFEB6
:100A900000F015F800F038F800F038FC4FF416506C
:100AA00007F044F94FF4165000F04AF84FF4E130E3
:100AB00000F0A2F800F012F800F0C8FD10BD10B56B
:100AC00000F01CFA00F070FA10BD10B500F08EFCBA
:100AD00000BF05F07BF90028FBD110BD10B5002147
:100AE0004FF6FF7002F0D4FB00214FF6FF7002F0CA
:100AF00003F902F0D9FA02F0FDF902F03BFB02F033
:100B00006BFA02F015F810BD10B542F2CF01C72004
:100B100002F050F942F2CF01C72002F09BF90A21FE
:100B2000054802F01CFE0921044802F018FE32209C
:100B300003F008FE10BD000000200040001C004033
:100B400010B588B004460121042000F0E1FE012127
:100B5000C80400F0EDFE08220A21254800F088F9BB
:100B600008220B21224800F083F94FF440600690E0
:100B700002208DF81C008DF81D0000208DF81E004D
:100B800001208DF81F0006A9194800F029F90294E8
:100B90000020ADF80C00ADF80E00ADF81000ADF877
:100BA00014000C20ADF8120002A9124802F054FF04
:100BB0000121104802F0E8FE34208DF804000320E3
:100BC0008DF8050000208DF8060001208DF8070043
:100BD00001A800F07BFD4021064802F0BDFE012285
:100BE00040F22551034802F012FF08B010BD00008A
:100BF00000080240004C004010B588B004460121B6
:100C0000202000F0B5FE0121042000F081FE082222
:100C10000621244800F02CF908220721214800F081
:100C200027F9C020069002208DF81C008DF81D00C9
:100C300000208DF81E0001208DF81F0006A919481C
:100C400000F0CEF802940020ADF80C00ADF80E00D4
:100C5000ADF81000ADF814000C20ADF8120002A998
:100C6000114802F0F9FE012240F225510E4802F02F
:100C7000CEFE47208DF8040003208DF805000420E7
:100C80008DF8060001208DF8070001A800F01EFD78
:100C90004021054802F060FE0121034802F074FE85
:100CA00008B010BD00080240001401409FED260A64
:100CB000264880ED000A9FED240A80ED010A642099
:100CC00007F05AFA3FE001F0A7FB00F047F8204890
:100CD00090ED021AF0EE410A1E4890ED021AB0EEB5
:100CE000410A1D4800F038FD194890ED011AF0EE58
:100CF000410A184890ED011AB0EE410A164824380E
:100D000000F02AFD124890ED001AF0EE410A114859
:100D100090ED001AB0EE410A0F48483800F01CFD73
:100D20000B4890ED031AF0EE410A0A4890ED031AC1
:100D3000B0EE410A0848243000F00EFD01F02EFA12
:100D4000322007F019FABEE7000000000802002078
:100D5000F801002014020020B00100201C480068A7
:100D600000B2404200EE100AB8EEC00A194880ED09
:100D7000000A0020164908601748406A00B2404245
:100D800000EE100AB8EEC00A124880ED010A0020F9
:100D9000114948621148006800B2404200EE100A52
:100DA000B8EEC00A0B4880ED020A00200B4908602B
:100DB0000807406A00B2404200EE100AB8EEC00ACE
:100DC000044880ED030A00200907486270470000CC
:100DD00024040040140200200000014024080040C8
:100DE000F0B50A4600210023002400BF3DE00125A4
:100DF00005FA01F3156805EA03049C4234D105683D
:100E00004F000326BE40B543056015794E00B5403E
:100E10000668354305601579012D02D01579022D3C
:100E200016D185684F000326BE40B54385605579CD
:100E30004E00B540866835438560456801268E4082
:100E4000B5434560456896798E40B6B235434560F6
:100E5000C5684F000326BE40B543C560D5794E0036
:100E6000B540C6683543C560491C1029BFD3F0BDE5
:100E7000F0B5002300244D07ED0E02FA05F3CE1065
:100E800000F1200555F826504E07F70E0F26BE40FC
:100E9000B543CF1000F1200646F82750CE1000F1E0
:100EA000200555F8265045EA0304CE1000F1200530
:100EB00045F82640F0BD0246002013690B400BB1F7
:100EC000012000E000207047418370470EB511E01B
:100ED00000BF6A4601A902A804F06CFE0028F8D100
:100EE0009DED000A05F09AF9034880ED020A012001
:100EF00007F042F9ECE700000802002000B585B0D9
:100F00000121022000F004FD4FF400600390032053
:100F10008DF8110001208DF8100003A92048FFF77B
:100F20005FFF4FF400611E48FFF7CEFF4FF4806073
:100F3000039003208DF8110000208DF8100003A904
:100F40001748FFF74DFF4FF480611548FFF7BCFFCE
:100F50000121202000F0ECFC124802F015FA40F2CA
:100F6000E73001905320ADF800000020ADF80800F4
:100F7000ADF8020069460B4802F024FC0121094843
:100F800002F0F0F901221146064802F037FB04F0A6
:100F90004DFD0021034802F0EBF905B000BD000053
:100FA000000402400014004000B585B00121022079
:100FB00000F0AEFC4FF40050039003208DF81100B8
:100FC00001208DF8100003A92048FFF709FF4FF416
:100FD00000511E48FFF778FF4FF480500390032024
:100FE0008DF8110000208DF8100003A91748FFF7B5
:100FF000F7FE4FF480511548FFF766FF01210820E6
:1010000000F096FC124802F0BFF940F2E730019080
:101010005320ADF800000020ADF80800ADF8020044
:1010200069460B4802F0CEFB0121094802F09AF90B
:1010300001221146064802F0E1FA04F00BFD0021FE
:10104000034802F095F905B000BD0000000402401D
:10105000000C004010B500200F4908600F480068E0
:1010600020F440200D4908600846006840F48020C4
:10107000086000200A49C1F8A402022003F082FBA4
:10108000012005490860022003F07CFB0020044990
:10109000C1F8A00210BD0000A0824042000402403E
:1010A000008040421CB50121022000F031FC4FF4C9
:1010B0004070009001208DF8040000208DF806009B
:1010C00003208DF8050001208DF8070069460548CA
:1010D000FFF786FE0120044908600449C1F8A40214
:1010E0001CBD000000040240A0824042008040423B
:1010F00010B500200F4908600F48006820F4402018
:101100000D4908600846006840F48020086001200E
:101110000A49C1F8A402022003F034FB012005496A
:101120000860022003F02EFB00200449C1F8A00251
:1011300010BD0000A08240420004024000804042F6
:1011400070B5054600241648006820F44020144974
:101150000860084600680860002616E00020114973
:101160000860022003F00EFB01200F49C1F8A00225
:101170006006040E0B487C38006808B1601CC4B2DD
:10118000012003F0FFFA701CC6B2082EE6DB15B989
:10119000FFF7AEFF01E0FFF75DFF204670BD0000E6
:1011A00000040240A08240420080404270B50446E4
:1011B0001548006820F4402013490860084600687C
:1011C00040F480200860002010490860002517E0E6
:1011D000E0090E49091D08606006040E022003F0B4
:1011E000D1FA01200A49C1F8A002022003F0CAFA8C
:1011F000002006490860022003F0C4FA681CC5B24A
:10120000082DE5DB70BD000000040240A0824042D2
:101210000080404210B50F48006820F440200D497E
:1012200008600846006840F48020086001200A49F0
:1012300008600A49C1F8A002042003F0A3FA0020C4
:1012400005490860042003F09DFA00200349C1F815
:10125000A00210BD00040240A4824042008040422F
:1012600010B50F48006820F440200D49086008467A
:10127000006840F48020086000200A4908600A499C
:10128000C1F8A402042003F07DFA0120054908609A
:101290000549C1F8A402042003F074FA10BD00004F
:1012A00000040240A08240420080404210B5002469
:1012B0001348006820F4402011490860084600687F
:1012C000086001200F49086003F05CFA01200E4914
:1012D000C1F8A00203F056FA07E0601CC4B2FA2C71
:1012E00003DDFFF7BDFF012010BD06488038006810
:1012F0000028F2D10349091F086000BFF4E700008D
:1013000000040240A4824042008040421CB50121FA
:10131000102000F0FDFA0121042000F0F9FA082065
:10132000009000208DF8040003208DF805000220B5
:101330008DF8070069460548FFF752FD4FF48050CD
:10134000009069460248FFF74BFD1CBD00100240AB
:101350000008024043E022480078012817D12048C5
:101360008078012813D101031E48FFF7A4FD01284E
:1013700005D008211C48FFF79EFD01282CD14FF411
:101380007A7006F0F9FE02201549087024E014482E
:101390000078042820D11248807801281CD1082127
:1013A0001148FFF791FD4FF480510E48FFF78CFD77
:1013B0004FF480510B48FFF77EFD012805D008212E
:1013C0000948FFF778FD012806D140F2DC5006F00D
:1013D000D3FE052002490870052006F0CDFEBAE7CD
:1013E0001C000020000802400010024010B5FFF76A
:1013F00059FE80216B2000F0D7F8642003F0A2F999
:1014000000216B2000F0D0F8032000F08BF80020C2
:1014100000F080F8322000F0AAF80021382000F017
:10142000C3F800216A2000F0BFF80021232000F05B
:10143000BBF88021372000F0B7F8752000F013F8D2
:101440000446682C0BD101216B2000F0ADF800217F
:101450006C2000F0A9F8322000F089F801E00120AA
:1014600010BD0020FCE770B50446FFF7D3FED02086
:10147000FFF79CFEFFF71AFF2046FFF797FEFFF7E6
:1014800015FFFFF7C7FED120FFF790FEFFF70EFF15
:101490000020FFF755FE0546FFF7E2FE284670BD27
:1014A0002DE9F04106460F4614461D46FFF7B2FEF1
:1014B000002141EA4601C8B2FFF778FEFFF7F6FEC9
:1014C00020B1FFF7CDFE0120BDE8F0813846FFF7DF
:1014D0006DFEFFF7EBFEFFF79DFE012101EB4601DC
:1014E000C8B2FFF763FEFFF7E1FE0DE0012C04D167
:1014F0000020FFF725FE287003E00120FFF720FE03
:101500002870601EC4B26D1C002CEFD1FFF7A8FE3E
:101510000020D9E710B50446E006010E1C2000F0BB
:1015200043F810BD10B50446E006010E1B2000F084
:101530003BF810BD70B504460025BC2C01DB01252D
:1015400010E0622C01DB02250CE02A2C01DB0325D4
:1015500008E0142C01DB042504E00A2C01DB05253E
:1015600000E0062529461A2000F01EF870BD70B56F
:101570000446B4F57A7F01DD4FF47A74042C00DA66
:1015800004244FF47A7090FBF4F0401EC5B2294653
:10159000192000F009F80546264604EBD671C1F380
:1015A0004F00FFF7C7FF70BD70B505460C46FFF74B
:1015B00031FED020FFF7FAFDFFF778FE18B1FFF7F4
:1015C0004FFE012070BD2846FFF7F0FDFFF76EFECD
:1015D0002046FFF7EBFDFFF769FE18B1FFF740FE6D
:1015E0000120EFE7FFF73CFE0020EBE72DE9F0419B
:1015F00005460E4617469846FFF70CFE002141EAC5
:101600004501C8B2FFF7D2FDFFF750FE20B1FFF74A
:1016100027FE0120BDE8F0813046FFF7C7FDFFF748
:1016200045FE00240CE018F80400FFF7BFFDFFF7AB
:101630003DFE18B1FFF714FE0120EBE7601CC4B2B9
:10164000BC42F0DBFFF70CFE0020E3E700B5DFED66
:10165000181A9FED181ADFED180A9FED180A18489E
:1016600000F036F9DFED121A9FED121ADFED150AC0
:101670009FED150A1248243000F02AF9DFED0C1A0C
:101680009FED0C1ADFED0F0A9FED0C0A0C48483055
:1016900000F01EF9DFED061A9FED061ADFED090ACC
:1016A0009FED090A06486C3000F012F900BD0000F9
:1016B00000E87D470000000000008642000016435D
:1016C000680100209A99B14200007A4370B5002168
:1016D00000230F22C4781CB3174C246804F4E06480
:1016E000C4F5E064C4F30721C1F10404E3B20A4184
:1016F00044789C40E1B28478144021430C07210EC9
:101700000E4C05786155047804F01F050124AC40A7
:1017100005786D11AD0005F1E025C5F8004109E03F
:10172000047804F01F050124AC40054D06787611BD
:1017300045F8264070BD00000CED00E000E400E03C
:1017400080E100E002490143024A11607047000055
:101750000000FA050CED00E010B52DED108B8AB0FD
:101760000446B0EE408AF0EE608A38EEC80A84ED96
:10177000040A94ED060A10EE101A084608F0ACFBB5
:1017800041EC1F0B94ED050A10EE101A084608F004
:10179000A3FB9FED4D0B53EC102BCDE900019DED0C
:1017A000000B51EC100B08F0D7F8CDE9040194EDD3
:1017B000040A10EE101A084608F08EFBCDE902016B
:1017C0009DED040B53EC102B9DED020B51EC100B17
:1017D00008F098FA53EC1F2BCDE906019DED060B9E
:1017E00051EC100B07F070FE41EC1D0B94ED020A5A
:1017F00010EE101A084608F06FFB41EC1E0B53EC7C
:101800001D2B08F0A9F841EC1B0B94ED040AD4ED54
:10181000050A30EE600AD4ED000A20EE200AD4ED6D
:10182000010A94ED041A00EE810A10EE101A08461F
:1018300008F052FB41EC1C0B53EC1B2B07F044FE51
:1018400041EC1A0B94ED080A10EE101A084608F045
:1018500043FB53EC1A2BCDE908019DED080B51EC2D
:10186000100B07F031FE41EC190B07F0FBFD206275
:1018700094ED080AD4ED030AB4EEE00AF1EE10FA92
:1018800004DD94ED030A84ED080A10E094ED080AE3
:10189000D4ED030AF1EE600AB4EEE00AF1EE10FABC
:1018A00005D294ED030AB1EE400A84ED080A94EDE6
:1018B000050A84ED060A94ED040A84ED050A0AB0CF
:1018C000BDEC108B10BD00000000000000000040C7
:1018D00080ED000AC0ED010A80ED021AC0ED031A86
:1018E0009FED0A2A80ED042A9FED082A80ED052A43
:1018F0009FED062A80ED062A9FED042A80ED082A36
:101900009FED022A80ED072A7047000000000000CA
:1019100029B1064A12680243044B1A6004E0034AE4
:1019200012688243014B1A60704700003038024051
:1019300029B1064A12680243044B1A6004E0034AC4
:1019400012688243014B1A60704700004038024021
:1019500029B1064A12680243044B1A6004E0034AA4
:1019600012688243014B1A60704700002038024021
:1019700029B1064A12680243044B1A6004E0034A84
:1019800012688243014B1A607047000044380240DD
:1019900029B1064A12680243044B1A6004E0034A64
:1019A00012688243014B1A607047000024380240DD
:1019B000F0B5002100220024022500260223324F28
:1019C0003F6807F00C0121B1042905D0082937D15F
:1019D00005E02E4F076036E02D4F076033E02A4FB9
:1019E0003F1F3F68C7F38056274F3F1F3F6807F0F0
:1019F0003F036EB1264FB7FBF3F7DFF88CC0ACF1B5
:101A0000040CDCF800C0CCF3881C07FB0CF40CE0E1
:101A10001E4FB7FBF3F7DFF870C0ACF1040CDCF835
:101A200000C0CCF3881C07FB0CF4174F3F1F3F6826
:101A3000C7F301477F1C7D00B4FBF5F7076002E0A8
:101A4000124F076000BF00BF0F4F3F6807F0F00163
:101A50000909104F7A5C0768D74047600A4F3F6812
:101A600007F4E051890A0B4F7A5C4768D7408760DA
:101A7000054F3F6807F46041490B064F7A5C4768A1
:101A8000D740C760F0BD0000083802400024F400D1
:101A900000127A0056010020FE49062000F0F0FAFC
:101AA0000020FD490870DDE2FB48007808280DD2CF
:101AB000DFE800F0040D6F8FFBFA0CF90020F64907
:101AC00048708870C870087101200870C6E2002054
:101AD000F1494870F14800680B2810D10846007998
:101AE00068B901200871C870887005F077F9EC4971
:101AF000062000F0C5FA642006F03EFB48E0E74807
:101B00000068152811D1E448007970B90120E24934
:101B10000871C870887005F06DF9E249062000F080
:101B2000AFFA642006F028FB32E0DC4800680C289D
:101B300013D1D948007980B90120D7490871022012
:101B4000C8700120887005F049F9D549062000F0D9
:101B500097FA642006F010FB1AE0D04800681628B7
:101B600016D1CD48007998B90120CB4908710020E1
:101B7000CA4908600220C849C8700120887005F071
:101B800039F9C849062000F07BFA642006F0F4FA1F
:101B900064E2B2EE040AC44880ED000A02F066FD79
:101BA00002F070FD0020BC49887001204870BF49D8
:101BB0009FEDBF1ADFEDBE0A9FEDBE0A40F6B830BA
:101BC00000F0FAFE0020BC4908700320B2490870FA
:101BD00044E20120B0494870B7480078012865D137
:101BE0000846C078012861D1B1EE000AAE4880ED08
:101BF000000A9FEDB20AAD48001F80ED010A40F2D5
:101C00002A3006F0B9FA9FEDAE0AA848001F80ED11
:101C1000010A9FEDAB0A80ED000A642006F0ACFAE1
:101C2000B1EE000AA04880ED000AA049091F9FED0F
:101C3000A01ADFED9F0A9FED9F0A40F2D66000F0E8
:101C4000BBFE642006F098FA9FED9D0A9748001F9E
:101C500080ED010A9FED9A0A80ED000A642006F0EB
:101C60008BFA9FED980A9148001F80ED000A4FF40F
:101C7000966006F081FA9FED920A8C48001F80ED75
:101C8000010A9FED8F0A80ED000A642006F074FAC5
:101C90009FED8C0A8548001F80ED010A4FF4966085
:101CA00006F06AFA03E0D5E130E1B2E024E09FED0E
:101CB000840A7E48001F80ED010A9FED810A80EDB5
:101CC000000A642006F058FA7249062000F0D8F99C
:101CD000642006F051FA00206F494870FEF7F5FEC7
:101CE0004FF4FA7002F02EFD00206C4908606A493A
:101CF0000871042008708BE06F48007801287DD1BE
:101D00006548C078022879D1B2EE040A664880EDB1
:101D1000000A9FED6A0A6548001F80ED010A4FF432
:101D2000487006F029FA9FED660A6048001F80EDB2
:101D3000010A9FED630A80ED000A642006F01CFA98
:101D4000B1EE0C0A584880ED000A5849091F9FED72
:101D5000581ADFED570A9FED5C0A40F2A46000F0CC
:101D60002BFE642006F008FA9FED550A4F48001F2D
:101D700080ED010A9FED520A80ED000A642006F012
:101D8000FBF99FED520A4948001F80ED000A40F21E
:101D9000145006F0F1F99FED4A0A4448001F80ED07
:101DA000010A9FED470A80ED000A642006F0E4F97D
:101DB0009FED440A3D48001F80ED010A40F2145097
:101DC00006F0DAF99FED3E0A3848001F80ED010A5F
:101DD0009FED3B0A80ED000A642006F0CDF93C49F6
:101DE000062000F04DF9642006F0C6F900202A49CB
:101DF0004870FEF76AFE4FF4FA7000E008E002F067
:101E0000A1FC0020254908602349087104200870BE
:101E100024E1002020494870204800680B2810D198
:101E20000846007968B904F0D9FF01201A49087101
:101E300088702849062000F023F9642006F09CF9F8
:101E400063E016480068152810D11348007968B976
:101E500004F0D0FF01201049087188701E49062047
:101E600000F00EF9642006F087F94EE00B48006898
:101E70000C2836D10848007958B904F0AFFF01208A
:101E80000549087188701349062000F0F9F86420AC
:101E900024E026E0450000201C00002098000020DF
:101EA000390000203F000020240000200C02002008
:101EB000CDCC4C3E000096438300002000004843F8
:101EC000000000000000C842000096C30000C8C225
:101ED0004B000020510000205700002006F04CF974
:101EE00013E06148006816280FD16048007960B996
:101EF00004F080FF01205D49087188705C4906206C
:101F000000F0BEF8642006F037F9A7E002F0AEFB5F
:101F100002F0B8FB0020554988700120487008463F
:101F2000C078012841D19FED530A534880ED010A42
:101F30004FF4FA7006F020F91FED1F0A4E4880EDAD
:101F4000010A1FED210A80ED000A642006F014F951
:101F5000B1EE000A494880ED000A47491FED2C1AEE
:101F60005FED2D0A1FED280A40F2267000F024FDD7
:101F7000642006F001F9B1EE080A404880ED000A3D
:101F80003D49091D1FED361A5FED370A1FED320A74
:101F900040F6A66000F010FD9FED360A364880ED51
:101FA000000A822006F0E8F844E03048C0780228B1
:101FB00040D19FED300A304880ED010A40F28A207E
:101FC00006F0DAF81FED420A2B4880ED010A1FEDFA
:101FD000440A80ED000A642006F0CEF8B1EE0C0A47
:101FE000264880ED000A24491FED4F1A5FED500A84
:101FF0001FED500A40F63E0000F0DEFC642006F0C3
:10200000BBF8B1EE0C0A1D4880ED000A1A49091D03
:102010001FED591A5FED5A0A1FED550A40F674601C
:1020200000F0CAFC9FED130A134880ED000AA020BF
:1020300006F0A2F81FED5E0A0F4880ED010A1FEDC1
:10204000600A80ED000A642006F096F80720074930
:10205000087003E000200549487000BF00BF32202F
:1020600006F08AF820E50000980000201C000020FF
:1020700057000020000016C30802002024000020A2
:1020800070B505460E4600240CE0315D074801F0AE
:1020900052FD00BF4021054801F082FC0128F9D122
:1020A000601CC4B2AC42F0DB70BD00000010014007
:1020B0000CB50020019000903448006840F4803056
:1020C0003249086000BF3148006800F400300090D9
:1020D0000198401C0190009818B90198B0F5A04FE4
:1020E000F1D12A48006800F4003010B101200090BE
:1020F00001E0002000900098012846D1234840309C
:10210000006840F080502149403108602048006854
:1021100040F440401E4908601C48083000681B49D4
:10212000083108600846006840F40040086008462E
:10213000006840F4A05008601648091F0860081F96
:10214000006840F08070091F086000BF0F480068F9
:1021500000F000700028F9D040F205700E490860C8
:102160000A480830006820F0030008490831086078
:102170000846006840F00200086000BF03480830CD
:10218000006800F00C000828F8D10CBD00380240AF
:102190000070004008544007003C024010B59648CB
:1021A00090ED080AB5EEC00AF1EE10FA1ADB012034
:1021B0009249086000209249C1F8B4028E4890ED1F
:1021C000080ABCEEC00A10EE100A8E4948638A481D
:1021D00090ED080ABCEEC00A10EE101A894801F012
:1021E000BEFA25E0844890ED080AB5EEC00AF1EE8B
:1021F00010FA1DD200208149086001208049C1F8F1
:10220000B4027D4890ED080AB1EE400ABCEEC00A67
:1022100010EE100A7B494863774890ED080AB1EE4A
:10222000400ABCEEC00A10EE101A764801F097FA88
:10223000714890ED110AB5EEC00AF1EE10FA1BDB01
:1022400000207149086001207049C1F8A8026A485D
:1022500090ED110ABCEEC00A10EE100A6C4908603D
:10226000654890ED110ABCEEC00A10EE101A6848DD
:10227000343801F074FA26E05F4890ED110AB5EEAB
:10228000C00AF1EE10FA1ED201205F49086000205A
:102290005E49C1F8A802584890ED110AB1EE400A13
:1022A000BCEEC00A10EE100A59490860524890ED81
:1022B000110AB1EE400ABCEEC00A10EE101A5448E2
:1022C000343801F04CFA4C4890ED1A0AB5EEC00AC9
:1022D000F1EE10FA1DDB01204B49091D08600020BA
:1022E0004A49C1F8AC02444890ED1A0ABCEEC00A53
:1022F00010EE100A4649091D08603F4890ED1A0A81
:10230000BCEEC00A10EE101A4148343801F029FA28
:1023100028E0394890ED1A0AB5EEC00AF1EE10FA3D
:1023200020D200203849091D086001203749C1F832
:10233000AC02314890ED1A0AB1EE400ABCEEC00A78
:1023400010EE100A3249091D08602B4890ED1A0A58
:10235000B1EE400ABCEEC00A10EE101A2C48343818
:1023600001F0FFF9244890ED230AB5EEC00AF1EE22
:1023700010FA1ADB01202749086000202049C1F823
:10238000BC021D4890ED230ABCEEC00A10EE100AF4
:102390001C498863184890ED230ABCEEC00A10EE71
:1023A000101A184801F0DDF925E0134890ED230AD2
:1023B000B5EEC00AF1EE10FA1DD2002015490860F2
:1023C00001200F49C1F8BC020B4890ED230AB1EE81
:1023D000400ABCEEC00A10EE100A0A49886306489B
:1023E00090ED230AB1EE400ABCEEC00A10EE101ABE
:1023F000044801F0B6F910BD680100209002424285
:102400000000414200400140A08241420080414220
:1024100034180040B802414210B52DED108BFE4833
:10242000407801287ED1FD4890ED020AFC48D0EDAD
:10243000000A20EE200A10EE101A084607F04CFDA4
:1024400041EC190B9FEDF70B01F0AEFFB0EE40EA47
:10245000F0EE60EAF14890ED010A10EE101A08461D
:1024600007F03AFD41EC1F0B53EC1E2B07F074FAFA
:1024700041EC1D0B9FEDEB0B53EC102B07F0D8F844
:1024800041EC1B0B9FEDE70B01F08EFFB0EE40EA35
:10249000F0EE60EAE14890ED000AB1EE400A10EE7D
:1024A000101A084607F018FD41EC1F0B53EC1E2BC9
:1024B00007F052FA41EC1D0B9FEDDA0B53EC102B99
:1024C00007F0B6F841EC1C0B53EC1B2B07F01AFC81
:1024D00041EC1A0B53EC192B06F0F6FF41EC180BEC
:1024E00006F0C0FFD1490860CC4890ED020ACC4804
:1024F000D0ED000A20EE200A10EE101A084607F070
:10250000EBFC41EC190B9FEDC70B01F04DFFB0EE5A
:1025100040EAF0EE60EAC14890ED010A10EE101AB0
:10252000084600E002E107F0D7FC41EC1F0B53EC3A
:102530001E2B07F011FA41EC1D0B9FEDBA0B53EC6B
:10254000102B07F075F841EC1B0B9FEDB60B01F05B
:102550002BFFB0EE40EAF0EE60EAB04890ED000AE2
:1025600010EE101A084607F0B7FC41EC1F0B53ECB5
:102570001E2B07F0F1F941EC1D0B9FEDAA0B53EC5C
:10258000102B07F055F841EC1C0B53EC1B2B07F0FC
:10259000B9FB41EC1A0B53EC192B06F095FF41ECFB
:1025A000180B06F05FFFA14948609C4890ED020AB5
:1025B0009B48D0ED000A20EE200A10EE101A0846C3
:1025C00007F08AFC41EC190B9FED960B01F0ECFE35
:1025D000B0EE40EAF0EE60EA904890ED010A10EEAD
:1025E000101A084607F078FC41EC1F0B53EC1E2B29
:1025F00007F0B2F941EC1D0B9FED8A0B53EC102B49
:1026000007F016F841EC1B0B9FED860B01F0CCFE9A
:10261000B0EE40EAF0EE60EA804890ED000A10EE7D
:10262000101A084607F058FC41EC1F0B53EC1E2B08
:1026300007F092F941EC1D0B9FED7A0B53EC102B38
:1026400006F0F6FF41EC1C0B53EC1B2B06F03CFF95
:1026500041EC1A0B53EC192B06F036FF41EC180B2A
:1026600006F000FF714988606C4890ED020A6C48E2
:10267000D0ED000A20EE200A10EE101A084607F0EE
:102680002BFC41EC190B9FED670B01F08DFEB0EEBA
:1026900040EAF0EE60EA614890ED010A10EE101A8F
:1026A000084607F019FC41EC1F0B53EC1E2B07F0FA
:1026B00053F941EC1D0B9FED5B0B53EC102B06F017
:1026C000B7FF41EC1B0B9FED570B01F06DFEB0EE19
:1026D00040EAF0EE60EA514890ED000AB1EE400A9F
:1026E00010EE101A084607F0F7FB41EC1F0B53ECF5
:1026F0001E2B07F031F941EC1D0B9FED4A0B53ECFB
:10270000102B06F095FF41EC1C0B53EC1B2B06F035
:10271000DBFE41EC1A0B53EC192B06F0D5FE41EC15
:10272000180B06F09FFE4149C8603DE13A484078E9
:102730000028FAD19FED3B0B01F036FEB0EE40CA07
:10274000F0EE60CA354890ED010A10EE101A084606
:1027500007F0C2FB41EC1D0B53EC1C2B07F0FCF8FF
:1027600041EC1B0B9FED2F0B53EC102B06F060FF81
:1027700041EC190B9FED2B0B01F016FEB0EE40CA99
:10278000F0EE60CA254890ED000AB1EE400A10EE66
:10279000101A084607F0A0FB41EC1D0B53EC1C2B54
:1027A00007F0DAF841EC1B0B9FED1E0B53EC102BDE
:1027B00006F03EFF41EC1A0B53EC192B07F0A2FA7E
:1027C00041EC180B06F04EFE184908609FED150B02
:1027D00001F0EAFDB0EE40CAF0EE60CA0F4890ED9D
:1027E000010A10EE101A084607F076FB41EC1D0BAB
:1027F00053EC1C2B07F0B0F841EC1B0B9FED090BC1
:1028000053EC102B06F014FF41EC190B9FED050B58
:1028100001F0CAFD0CE000001C00002008020020AE
:10282000240000200000000000000040F80100200B
:10283000B0EE40CAF0EE60CA5D4890ED000A10EEBE
:10284000101A084607F048FB41EC1D0B53EC1C2BFB
:1028500007F082F841EC1B0B1FED0E0B53EC102B15
:1028600006F0E6FE41EC1A0B53EC192B07F04AFA7E
:1028700041EC180B06F0F6FD4E4948601FED170BB2
:1028800001F092FDB0EE40CAF0EE60CA484890ED0B
:10289000010A10EE101A084607F01EFB41EC1D0B52
:1028A00053EC1C2B07F058F841EC1B0B1FED230BCE
:1028B00053EC102B06F0BCFE41EC180B1FED270B60
:1028C00001F072FDB0EE40CAF0EE60CA384890EDFB
:1028D000000A10EE101A084607F0FEFA41EC1D0B34
:1028E00053EC1C2B07F038F841EC1B0B1FED330B9E
:1028F00053EC102B06F09CFE41EC190B53EC182BFB
:1029000006F0E2FD41EC1A0B06F0ACFD29498860A7
:102910001FED3C0B01F048FDB0EE40CAF0EE60CA7E
:10292000234890ED010A10EE101A084607F0D4FA79
:1029300041EC1D0B53EC1C2B07F00EF841EC1B0B6C
:102940001FED480B53EC102B06F072FE41EC180BF8
:102950001FED4C0B01F028FDB0EE40CAF0EE60CA4E
:10296000134890ED000AB1EE400A10EE101A084626
:1029700007F0B2FA41EC1D0B53EC1C2B06F0ECFFF8
:1029800041EC1B0B1FED590B53EC102B06F050FEC6
:1029900041EC190B53EC182B06F096FD41EC1A0B89
:1029A00006F060FD0349C860BDEC108B10BD00004F
:1029B00008020020F80100202DE9F0472DED068BDC
:1029C0000446B0EE408AF0EE608AB0EE419A0D46C1
:1029D000002600EE104AB8EEC00A28EE800ABDEECE
:1029E000C00A10EE107A00EE104AB8EEC00A29EEC6
:1029F000000ABDEEC00A10EE108AE01BA0EB080929
:102A000000EE107AB8EEC00AC8EE000AF0EE609A46
:102A100000EE108AB8EEC00AC8EE000AB0EE60AA56
:102A200009E0761C95ED000A30EE290A85ED000AD2
:102A3000012005F0A1FBBE42F3DB85ED008A03E037
:102A4000761C012005F098FB09EB0700B042F7DC8B
:102A500009E0761C95ED000A30EE4A0A85ED000A81
:102A6000012005F089FBA642F3DB9FED040A85ED0A
:102A7000000ABDEC068BBDE8F087000000000000F6
:102A8000042808D14FF0E021096941F004014FF01A
:102A9000E022116107E04FF0E021096921F0040113
:102AA0004FF0E0221161704710B506F013FA0128CB
:102AB00002D005F07DFE04E002480068401C014998
:102AC000086010BD4C01002010B51548006840F4A6
:102AD0007000134908601348006840F00100114974
:102AE000086000200F49083108600E4800680E4950
:102AF00008400C4908600D48091D0860081F00685F
:102B000020F48020091F0860002006490C3108606D
:102B1000FFF7CEFA4FF0006001498039086010BD20
:102B200088ED00E000380240FFFFF6FE1030002480
:102B30001CB501210420FEF7EBFE01211020FEF759
:102B4000E7FE01210820FEF7E3FE4FF4604000900D
:102B500001208DF8040000208DF8060003208DF878
:102B6000050069461848FEF73BF94FF460411648E6
:102B7000FEF7AAF94FF47060009001208DF8040070
:102B800000208DF8060003208DF8050069460F48E7
:102B9000FEF726F94FF470610C48FEF795F9102006
:102BA000009001208DF8040000208DF8060003201D
:102BB0008DF8050069460648FEF712F91021044811
:102BC000FEF782F91CBD000000080240000C024024
:102BD00000100240F0B50C46154600210022068C7C
:102BE0004FF6FE773E400684018B028C4FF60C7642
:102BF00031407E1C06EA03162E4331434FF6F5762C
:102C0000324044F00106324301830284F0BDF0B546
:102C10000C461546002100220026078C4FF6EF7C5B
:102C200007EA0C070784018B028C4FF6FF7707EA4F
:102C3000041640F6FF4739404FF6FF7707EA03379F
:102C400039434FF6FF7707EA052739434FF65F7799
:102C50003A4046F010073A4301830284F0BDF0B5D4
:102C60000C461546002100220026078C4FF6FF6C0B
:102C700007EA0C070784818B028C4FF6FF7707EA7F
:102C800004264FF60C7739404FF6FF7707EA031713
:102C90002F4339434FF2FF573A4046F480773A4387
:102CA00081830284F0BDF0B50C4615460021002258
:102CB0000026078C4EF6FF7C07EA0C070784818B01
:102CC000028C4FF6FF7707EA043640F6FF4739409B
:102CD0004FF6FF7707EA052739434FF6FF7707EAF4
:102CE0000337394345F6FF773A4046F480573A4375
:102CF00081830284F0BD000030B58BB004460D46E0
:102D000001214020FEF714FE01210220FEF700FE03
:102D100009220E212548FEF7ABF809220F2123488E
:102D2000FEF7A6F84FF44040099002208DF82800E5
:102D300003208DF8290000208DF82A0001208DF84D
:102D40002B0009A91948FEF74BF8A8B2ADF81800F6
:102D50000020ADF81A000794ADF8200006A9144829
:102D600000F030FD6020ADF804000120ADF8060051
:102D70000020ADF81000039001A90D4800F048FCB8
:102D800000210B4800F082FC01A9094800F088FCF2
:102D90000021074800F0D6FC0121054800F0D6FAD2
:102DA0000121034800F0E4FA0BB030BD00040240FA
:102DB0000018004030B58BB004460D46012180203C
:102DC000FEF7B6FD01212020FEF7A2FD0922082111
:102DD0001E48FEF74DF84FF48070099002208DF8E0
:102DE000280003208DF8290000208DF82A000120FA
:102DF0008DF82B0009A91548FDF7F2FFA8B2ADF830
:102E000018000020ADF81A000794ADF8200006A9BC
:102E10000F4800F0D7FC7020ADF804000120ADF899
:102E200006000220ADF8100001A9094800F0F0FBEF
:102E30000821074800F02AFC0121054800F086FA25
:102E40000121034800F094FA0BB030BD0014024099
:102E5000001C004030B58BB004460D46012108022D
:102E6000FEF766FD01212020FEF752FD09221146E2
:102E70001E48FDF7FDFF4FF40070099002208DF809
:102E8000280003208DF8290000208DF82A00012059
:102E90008DF82B0009A91548FDF7A2FFA8B2ADF8DF
:102EA00018000020ADF81A000794ADF8200006A91C
:102EB0000F4800F087FC7020ADF804000120ADF849
:102EC00006000220ADF8100001A9094800F0A0FB9F
:102ED0000821074800F0DAFB0121054800F036FA26
:102EE0000121034800F044FA0BB030BD0014024049
:102EF0000020004000B58BB001210846FEF738FDE8
:102F000001210846FEF704FD01211020FEF700FD17
:102F100002208DF82800C001099003208DF82900B7
:102F200001208DF82A008DF82B0009A92748FDF70C
:102F300057FF012208212548FDF79AFF02208DF84E
:102F400020008002079003208DF8210001208DF8D9
:102F500022008DF8230007A91D48FDF741FF01223B
:102F60000B211B48FDF784FF4FF6FF7005900020F2
:102F7000ADF81000ADF81800ADF8120004A915481E
:102F800000F020FC00231A460321124800F0C4FA86
:102F900001A800F02AFB0020ADF80C0001A90D48A3
:102FA00000F0ECFA01210B4800F0DCF90122114697
:102FB000084800F023FB0021064800F0D4FB012163
:102FC000044800F0D5F90BB000BD0000000002403D
:102FD000001002400000014000B589B00121084600
:102FE000FEF7A6FC01210846FEF792FC02208DF8B0
:102FF0002000032007908DF8210001208DF8220089
:103000008DF8230007A92148FDF7EAFE01220021DF
:103010001E48FDF72DFF012211461C48FDF728FF31
:103020004FF6FF7005900020ADF81000ADF81800C5
:10303000ADF8120004A94FF0804000F0C3FB00235C
:103040001A4603214FF0804000F066FA01A800F014
:10305000CCFA0020ADF80C0001A94FF0804000F040
:103060008DFA0121880700F07DF9012211469007B1
:1030700000F0C4FA00214FF0804000F074FB012101
:10308000880700F075F909B000BD0000000002409B
:103090004FF08040008A4FF08040008A20F001000D
:1030A0004FF080410882704700B589B001210220AD
:1030B000FEF73EFC01210846FEF72AFC02208DF8AF
:1030C0002000C020079003208DF8210001208DF8FA
:1030D00022008DF8230007A91E48FDF781FE022279
:1030E00006211C48FDF7C4FE022207211948FDF7FE
:1030F000BFFE4FF6FF7005900020ADF81000ADF850
:103100001800ADF8120004A9134800F05BFB00237F
:103110001A460321104800F0FFF901A800F065FAF3
:103120000020ADF80C0001A90B4800F027FA01219E
:10313000094800F017F901221146074800F05EFA2D
:103140000021054800F00FFB0121034800F010F9B1
:1031500009B000BD0000024000040040044800889F
:103160000348008820F001000149088070470000F2
:103170001004004000B589B001210420FEF7D8FBFF
:1031800001210220FEF7C4FB02208DF82000C020A0
:10319000079003208DF8210001208DF822008DF882
:1031A000230007A91E48FDF71BFE022206211C482A
:1031B000FDF75EFE022207211948FDF759FE4FF682
:1031C000FF7005900020ADF81000ADF81800ADF8C4
:1031D000120004A9134800F0F5FA00231A4603214F
:1031E000104800F099F901A800F0FFF90020ADF8AF
:1031F0000C0001A90B4800F0C1F90121094800F0B9
:10320000B1F801221146074800F0F8F900210548FD
:1032100000F0A9FA0121034800F0AAF809B000BDA6
:103220000004024000080040044800880348008869
:1032300020F001000149088070470000100800409C
:1032400010B50121064800F088F940B10121044879
:1032500000F08BF803480088401C0249088010BD2C
:10326000000C00408800002010B50121064800F045
:1032700074F940B10121044800F077F80348008850
:10328000401C0249088010BD001400408600002048
:1032900030B58BB004460D4601210804FEF768FBEB
:1032A00001211020FEF734FB032205212548FDF7FC
:1032B000DFFD032206212348FDF7DAFD6020099097
:1032C00002208DF8280003208DF8290000208DF8B9
:1032D0002A0001208DF82B0009A91A48FDF780FD6E
:1032E000A8B2ADF818000020ADF81A000794ADF8A8
:1032F000200006A9144800F065FA6020ADF804002B
:103300000120ADF806000020ADF81000039001A9DF
:103310000D4800F07DF900210B4800F0B7F901A934
:10332000094800F0BDF90021074800F00BFA01211F
:10333000054800F00BF80121034800F019F80BB024
:1033400030BD0000001002400040014021B1028861
:1033500042F08002028004E002884FF67F731A4038
:1033600002807047CA4302827047CA430282704794
:1033700021B1028842F00102028004E002884FF687
:10338000FE731A400280704710B5044655488442C7
:1033900008D101210846FEF7FBFA00210120FEF7C3
:1033A000F7FA9DE0B4F1804F08D101210846FEF7FD
:1033B000CFFA00210120FEF7CBFA91E04A4884427F
:1033C00008D101210220FEF7C3FA00210220FEF7F6
:1033D000BFFA85E04548844208D101210420FEF768
:1033E000B7FA00210420FEF7B3FA79E0404884429E
:1033F00008D101210820FEF7ABFA00210820FEF7D2
:10340000A7FA6DE03B48844208D101211020FEF765
:103410009FFA00211020FEF79BFA61E036488442B3
:1034200008D101212020FEF793FA00212020FEF789
:103430008FFA55E03148844208D101210220FEF77D
:10344000A7FA00210220FEF7A3FA49E02C488442A3
:1034500009D101210804FEF79BFA00214FF48030C6
:10346000FEF796FA3CE02748844209D1012148043E
:10347000FEF78EFA00214FF40030FEF789FA2FE0B4
:103480002148844209D101218804FEF781FA0021F4
:103490004FF48020FEF77CFA22E01C48844208D1D9
:1034A00001214020FEF754FA00214020FEF750FA97
:1034B00016E01748844208D101218020FEF748FA1F
:1034C00000218020FEF744FA0AE01248844207D126
:1034D00001218015FEF73CFA0021A015FEF738FA0D
:1034E00010BD000000000140000400400008004042
:1034F000000C004000100040001400400004014097
:1035000000400140004401400048014000180040D4
:10351000001C004000200040F0B50C4615461E4639
:103520000021002200230189028B038C4FF6F877DB
:10353000394021434FF6FC473A4040F201173A43E5
:103540004FF6DD773B404FF6FF7707EA06172F432C
:103550003B43018102830384F0BD30B50246002065
:1035600000230024158A05EA0103958905EA010470
:1035700013B10CB1012000E0002030BD70B505464C
:103580000C46208850B92389A28861882846FFF715
:1035900021FBE188284600F0E8F825E0208804288F
:1035A0000AD12389A28861882846FFF730FBE18889
:1035B000284600F0E3F817E0208808280AD123897C
:1035C000A28861882846FFF74AFBE188284600F078
:1035D000E2F809E02389A28861882846FFF763FBA7
:1035E000E188284600F0E0F870BD002101804180AC
:1035F000012181800021C180018170471AB1838936
:103600000B43838102E083898B43838170470000F1
:1036100070B5002400220023058C4FF6FE7635405D
:103620000584028C8388048B4FF68F752C40B51E61
:103630002C400D882C43751E2A408D892A434D88C5
:103640002A43104DA84202D00F4DA84213D14FF685
:10365000F7752A40CD892A434FF6FB752A408D889D
:103660002A434FF6FF652B404FF6FF552B400D8A3E
:103670002B434D8A2B43838004838D6845630284EA
:1036800070BD000000000140000401400A46002116
:10369000018B4FF6F7731940114301837047000007
:1036A00070B5002400220023058C4FF6EF763540DC
:1036B0000584028C8388048B48F6FF752C404FF6F6
:1036C000FF452C400D884FF6FF7606EA05252C4372
:1036D0004FF6DF752A408D8906EA05152A434D8885
:1036E00006EA05152A43154DA84202D0144DA842FA
:1036F0001DD14FF67F752A40CD894FF6FF7606EA39
:1037000005152A434FF6BF752A408D8806EA051530
:103710002A434FF6FF352B404FF2FF752B400D8AA1
:1037200006EA85052B434D8A06EA85052B438380EF
:1037300004838D688563028470BD00000000014031
:10374000000401400A460021018B4FF2FF7319402B
:103750004FF6FF7303EA0223194301837047416365
:1037600070478163704741627047028B4FF6F37375
:103770001A400283028B0A4302837047028B4FF286
:10378000FF331A400283028B4FF6FF7303EA0123D3
:103790001A4302837047828B4FF6F3731A40828379
:1037A000828B0A4382837047828B4FF2FF331A4029
:1037B0008283828B4FF6FF7303EA01231A438283CD
:1037C0007047000000220288184B98420ED0184B18
:1037D00098420BD0B0F1804F08D0164B984205D0DC
:1037E000154B984202D0154B984204D14FF68F7377
:1037F0001A404B881A43124B984207D0114B9842FB
:1038000004D04FF6FF431A400B891A4302804B68DD
:10381000C3620B880385054B984202D0044B984243
:1038200001D18B7A03860123838270470000014017
:10383000000401400004004000080040000C00406B
:10384000001000400014004010B540F2255114480B
:1038500000F0B3F810B340F22551114800F085F89C
:103860000F4800F063F930380E490A680968491CAE
:103870000C4B19600C4941F82200184600680128D9
:1038800002DD0020194608600748406806490968BB
:1038900001EB810100EB41000449086010BD00000C
:1038A000004C00408C000020900000209800002078
:1038B00010B540F22551094800F07FF801280BD1DE
:1038C00040F22551054800F078F8012804D140F273
:1038D0002551024800F049F810BD0000005000409A
:1038E00010B540F225510B4800F067F8012810D1BF
:1038F000084800F01BF90849087040F225510548B6
:1039000000F05BF8012804D140F22551014800F095
:103910002CF810BD004400408400002010B540F297
:1039200025510B4800F049F8012810D1084800F053
:10393000FDF80849087040F22551054800F03DF8AF
:10394000012804D140F22551014800F00EF810BDC5
:10395000001401408300002001F40072B2F5007FE2
:1039600000D100BFCA430280704710B50022002377
:1039700040F66A14A14200D100BF0A12012494400B
:10398000A3B2DC43048010BD21B1828942F400520D
:10399000828104E082894DF6FF731A40828170476C
:1039A00002460020B1F5007F00D100BF13880B4014
:1039B0000BB1012000E00020704770B502460024E2
:1039C00000230025002040F66A16B14200D100BF56
:1039D000C1F3421501F01F03012606FA03F3012D7E
:1039E00002D19689334006E0022D02D1168A334077
:1039F00001E0968A33400C12012606FA04F4168878
:103A0000344013B10CB1012000E0002070BDF0B5CE
:103A10000346002400260025002040F66A17B9421C
:103A200000D100BF1846C1F3421401F01F06012760
:103A300007FA06F5012C01D10C3004E0022C01D16B
:103A4000103000E014301AB107682F43076002E01D
:103A50000768AF430760F0BD2DE9FF4705460E46F6
:103A60000024A14600BFA046B08900B100BF2C8A47
:103A700024F44054F08804432C82AC8941F20C6059
:103A80008443B08831890843718908430443AC8179
:103A9000AC8A24F44074B0890443AC826846FDF7D4
:103AA00087FF2048854202D01F48854202D1DDF8B9
:103AB0000C9001E0DDF80890A88900F4004040B1C6
:103AC00009EBC90000EB091031684900B0FBF1F7C0
:103AD00007E009EBC90000EB091031688900B0FB71
:103AE000F1F76420B7FBF0F004012009642101FB29
:103AF0001078A88900F4004040B1322000EBC800E3
:103B0000B0FBF1F000F00700044308E0322000EBC6
:103B100008106421B0FBF1F000F00F0004432C8189
:103B2000BDE8FF870010014000140140014688886D
:103B3000C0F308007047C1F308028280704703B4E5
:103B400001984100009850EAC12018BF04204A0D96
:103B500018BF40F0010040F2FF72B2EB515F08BFA6
:103B600040F00200012808BF052002B070470000A5
:103B700070B5C1482DED020B2DED0E8B82B0119D5D
:103B800025F000449FEDBEDB9FEDBFEB84423EDBA2
:103B9000A4F140511098A1F17F6108430FD0BC48B7
:103BA000844202DC28D1109830B39DED100B02B096
:103BB000BDEC0E8B02B0BDE8704000F0AEBC9DEDD8
:103BC000100B53EC1D2B51EC100B05F0C5FE9DEDB9
:103BD000100B41EC180B53EC1E2B51EC100B05F0A5
:103BE000BBFE53EC182B05F06FFC41EC100B02B040
:103BF000BDEC0E8B02B070BD0120FCF7E6FD02B0FB
:103C0000BDEC0E8B02B0BDE8704000F09DBCA14839
:103C10009FEDA18B844256DA9DED100BB4F1795FD4
:103C20000ADA51EC100BFFF78AFF042808BF00F0F6
:103C30009BFC9DED100BDAE753EC102B51EC100BB5
:103C400005F08AFE41EC190B95480621B0EE490AB1
:103C5000F0EE690A784400F0E4FB53EC192B51ECC8
:103C6000100B05F079FE41EC1A0B8E48B0EE490AB4
:103C7000F0EE690A0421784400F0D3FB53EC192BD1
:103C800051EC100B05F068FE53EC182B05F01CFCF2
:103C900041EC100B51EC1A0B53EC102B05F0C8FC47
:103CA000CDE900019DED000B53EC102B9DED100BA9
:103CB00051EC100B05F050FE9DED101B53EC112B39
:103CC00005F002FCD2E09DED100B51EC100B01F061
:103CD00067FB53EC182B05F03DFF9FED730BCDE90F
:103CE000000153EC102B9DED000B51EC100B05F077
:103CF00033FE41EC190B6E480621B0EE490AF0EE96
:103D0000690A784400F08DFB53EC192B51EC100B31
:103D100005F022FE41EC1B0B6648B0EE490AF0EEBE
:103D2000690A0421784400F07CFB53EC192B51EC18
:103D3000100B05F011FE53EC182B05F0C5FB41EC00
:103D40001C0B51EC190B03F059FF41EC180B5A48AE
:103D50009FED5BABA04222DC53EC1C2B51EC1B0B08
:103D600005F066FCCDE900019DED000B51EC180B50
:103D700053EC102B05F0F0FD53EC182B05F0A4FBD1
:103D800053EC1A2B05F0E8FD53EC1D2B05F0BAFFA0
:103D900053EC1E2B05F0DEFE41EC100B5FE08DEDC9
:103DA000008B002000909DED000B51EC180B53ECA4
:103DB000102B05F089FB9DED000B41EC1E0B53EC25
:103DC000102B51EC100B05F0C7FD53EC192B05F02F
:103DD000C1FE53EC1E2B05F02BFC41EC190B53ECF0
:103DE0001C2B51EC1B0B05F023FC41EC1B0B53EC83
:103DF0001A2B51EC190B05F0AFFD53EC1D2B05F000
:103E0000A9FE41EC190B53EC1A2B51EC180B05F0E1
:103E1000A3FD53EC1B2B05F09FFD53EC192B05F074
:103E200071FF9DED000B41EC180B53EC1A2B51EC7C
:103E3000100B05F091FD9FED249B53EC192B05F021
:103E400089FE41EC100B51EC180B53EC102B05F0D4
:103E500059FF53EC192B05F07DFE41EC100B002DA2
:103E60003FF7C5AE51EC100B05F0F0FA41EC100B2A
:103E7000BDE60000000000000000F03F0000000070
:103E8000075C143326A6913C182D4454FB21F93FBE
:103E90000000F07F0000E03F000000000000F03F65
:103EA000D06F0000DE6F0000000000000000E03F67
:103EB000226F0000306F00003333EF3F000000003E
:103EC0000000000000000040182D4454FB21E93F91
:103ED00070B59B482DED020B2DED068B079D25F04F
:103EE0000044A04218DC9748844202DC0AD10698BC
:103EF00040B19DED060BBDEC068B02B0BDE87040F5
:103F000000F00BBB002DCCBF9FED8F0B9FED900BF6
:103F1000BDEC068B02B070BD8F48A04215DD8F4806
:103F2000A042D8BF4FF0FF3458DD9DED060B51EC99
:103F3000100BFFF704FE042808BF00F015FB9DEDF1
:103F4000060BBDEC068B02B070BD9DED060B51EC6F
:103F5000100B01F025FACDE9060181489FED828B17
:103F6000A0423CDD8248A0421FDD00249FED82ABD1
:103F70009DED060B53EC1A2B51EC100B05F0A4FA37
:103F80009DED060B41EC190B53EC1A2B51EC100B69
:103F900005F0E2FC53EC182B05F0B4FE53EC192BA2
:103FA00005F046FBCDE9060149E09DED060B012435
:103FB00053EC182B51EC100B05F086FA9DED060B17
:103FC00041EC190B53EC182B51EC100B05F09AFE39
:103FD00053EC192B05F02CFBCDE906012FE06848C6
:103FE000A0421FDD02249FED689B9DED060B53EC64
:103FF000192B51EC100B05F0AFFC53EC182B05F00E
:1040000063FA9DED060B41EC180B53EC192B51ECA8
:10401000100B05F077FE53EC182B05F009FBCDE9EA
:1040200006010CE09DED060B032453EC102B9FEDD5
:10403000580B51EC100B05F0FBFACDE906019DED94
:10404000060B53EC102B51EC100B05F085FC41ECEA
:10405000180B53EC182B05F07FFC41EC190B4E4864
:104060000621B0EE490AF0EE690A784400F0D9F969
:1040700053EC182B51EC100B05F06EFC41EC180BB7
:104080004648B0EE490AF0EE690A0521784400F08E
:10409000C8F953EC192B51EC100B05F05DFC41EC09
:1040A000100B51EC180B53EC102B002C0EDA05F012
:1040B0000BFA9DED061B53EC112B05F04DFC9DED0D
:1040C000061B53EC112B05F045FD35E005F0FCF91E
:1040D0009DED061B53EC112B05F03EFC41EC100B43
:1040E0002F48784400EBC40090ED001B51EC100BFE
:1040F00053EC112B05F006FE9DED061B53EC112B26
:1041000005F000FE41EC100B2648784400EBC4009B
:1041100090ED001B51EC100B53EC112B05F01AFD28
:1041200041EC100B002DA2BFBDEC068B02B070BDA0
:1041300051EC100B05F08AF941EC100B01E700007F
:10414000000010440000F07F182D4454FB21F93F7B
:10415000182D4454FB21F9BF0000DC3F0000203E35
:104160000000F33F00000000000000000000F03FEE
:104170000000E63F000000000000000000000040DA
:104180000080034000000000000000000000F83F35
:10419000000000000000F0BF726C0000286C0000FE
:1041A000B26B00006A6B000070B56F4E2DED040B12
:1041B0002DED048B82B0DDF824C0DDE907235C42DD
:1041C0002CF000411C4341EAD474069D22F00040CB
:1041D000B44205D86C422C4340EAD474B4420BD9A3
:1041E0009DED081B9DED060B02B0BDEC048B04B0E9
:1041F000BDE8704000F09BB9ACF14054A4F17F647D
:104200001C430BD0022404EAAC7444EAD274054384
:104210009FED578B9FED582B07D015E09DED060BBA
:1042200051EC100B00F01AFA42E0002C11BF012CE7
:104230009DED060B02B0BDEC048B04BF04B070BD55
:10424000022C38D0032C3BD00B439FED4D1B9FED30
:104250004E0B0AD0B14218D1B04209D121F08041B1
:1042600020F08040099107900FE0002A15DA10E055
:10427000474B7B44002C08BF93ED000B0DD0012C65
:1042800010D0022C17D0032C1AD0B0421DD1002A16
:1042900003DAB0EE410AF0EE610A02B0BDEC048B25
:1042A00004B070BD93ED000B51EC100B05F0CEF88F
:1042B00041EC100BF1E7B0EE480AF0EE680AECE7CB
:1042C000B0EE420AF0EE620AE7E7401A00159FEDF1
:1042D000329B3C28C8BF8DED000B17DCBCF1000FF2
:1042E000BCBF10F13C0F8DED009B0FDB9DED080B6B
:1042F00053EC102B9DED060B51EC100B05F098F9CB
:1043000001F04EF800F0AAF9CDE90001B4B1012C9A
:1043100010D0022C9FED220B53EC102B9DED000BC7
:1043200051EC100B19D005F0EDFC53EC182B05F0F7
:10433000E9FCBDE7019880F0004001909DED000B85
:1043400053EC192B51EC100B05F0CAFA04BF0220F4
:10435000FCF73BFA9DED000B9FE705F0D3FC53EC17
:10436000182B05F0F7FBA3E70000F07F000000002A
:10437000182D4454FB210940182D4454FB2109C039
:10438000182D4454FB21F9BF182D4454FB21F93F4B
:104390009A6A000000000000000000000000000019
:1043A000075C143326A6A13C00B52DED048BB0EEBE
:1043B000409AF0EE609A83B051EC190B05F0D6FBF1
:1043C00041EC180B18EE100A18EE901A8DED008BC8
:1043D000002818BF0120084320F00040C0F17F6092
:1043E00000F1E040C00F14D019EE101A19EE900A37
:1043F0008DED009B002918BF0121084320F00040EB
:10440000C0F17F6000F1E040C00F04BF0120FCF765
:10441000DCF9B0EE480A03B0F0EE680ABDEC048B9C
:1044200000BD70B504462DED028B4D1E00EBC5009E
:10443000B0EE408AF0EE608A90ED000B35F0060099
:1044400017D053EC182B51EC100B05F085FA41EC0A
:10445000100B6D1E04EBC50090ED001B51EC100B12
:1044600053EC112B05F030F841EC100B35F0060041
:10447000E7D1022D36D0042D1CD0062D1CBFBDEC7B
:10448000028B70BD53EC182B51EC100B05F064FA45
:1044900094ED0A1B53EC112B05F016F853EC182B76
:1044A00005F05AFA94ED081B53EC112B05F00CF8AB
:1044B00041EC100B53EC182B51EC100B05F04CFA9F
:1044C00094ED061B53EC112B04F0FEFF53EC182B5C
:1044D00005F042FA94ED040B53EC102B04F0F4FFBA
:1044E00041EC100B53EC182B51EC100B05F034FA87
:1044F00094ED021B53EC112B04F0E6FF53EC182B48
:1045000005F02AFA94ED001B53EC112B04F0DCFFAC
:10451000BDEC028B41EC100B70BD10B553EC102BB1
:1045200051EC100B04F0D0FF41EC100B10BD10B596
:1045300053EC112B51EC100B04F0C6FF41EC100BA7
:1045400010BD0000000000009FED050B10B553ECFE
:10455000102B51EC100B05F06BF841EC100B10BD5B
:1045600000000000000000009FED050B10B553ECAB
:10457000102B51EC100B05F0EFF941EC100B10BDB6
:10458000000000000000001030380A2801D201208D
:1045900070470020704700BF70470000F0B52DED58
:1045A000028B83B006460F460025684600F012FFD6
:1045B000002447E056F8241057F82420881A0028D1
:1045C00001DB014600E0414200EE101AB8EEC00ADD
:1045D000DFED200A80EE208A684600EB840090ED33
:1045E000000AB5EEC00AF1EE10FA18D0684600EBEA
:1045F0008400D0ED000A88EE200AF7EE000A70EE83
:10460000608AB0EEE80A1448D0ED090AB4EEE00A78
:10461000F1EE10FA15DD0120A040054311E00E482F
:1046200090ED070AB4EEC80AF1EE10FA06DC90ED40
:10463000080AB4EEC80AF1EE10FA02D20120A04036
:104640000543641C032CB5DB284603B0BDEC028B8C
:10465000F0BD000000008047F89F000810B541EC55
:10466000100BFFF735FC51EC100B10BD10B50A21F3
:104670000348FFF774F8322003F07EFD10BD000000
:104680000020004010B509210348FFF768F86420B6
:1046900003F072FD10BD0000001C00402DE9F04148
:1046A0000446E07800F0C006E07800F03F0560784E
:1046B00000F0010098B1EF102846E91705EB5171A1
:1046C000C910A5EBC101491C01F0FF080B480068A7
:1046D00020B10A48414602683846904700BF6078DA
:1046E00000F0080030B10548406818B1B011034A25
:1046F000516888470020BDE8F081000024020020B6
:1047000070B504460420FEF7BBF90C48047025463A
:104710004FF47A7045430120094908804FF0E020AA
:10472000006940F002004FF0E02108610846456151
:10473000006940F00100086170BD000048010020E0
:104740004A01002070B5044604F0C4FB012810D0D3
:104750000B480088844206D309480088B4FBF0F572
:10476000284603F009FD06480088B4FBF0F100FB81
:1047700011444FF47A7104FB01F000F003F870BDAE
:104780004A01002070B5034600224FF0E02675690B
:104790000D4E367803FB06F44FF0E026B16910E0C9
:1047A0004FF0E026B06988420BD0884202D20E1A40
:1047B000324402E02E1A0E4432440146A24200D393
:1047C00000E0EDE700BF70BD4801002038B50446A9
:1047D00064B120208DF8000028208DF801003020E1
:1047E0008DF8020038208DF8030004E0A322042194
:1047F0006846FBF762FF6A46042140F69E2002F0FD
:10480000ADFA01F097FE38BD3EB5044602208DF8A2
:104810000000CA208DF80100E3208DF80200092075
:104820008DF803006A460421682002F097FAA3205D
:104830008DF8000004F0400048B1C0208DF8010060
:10484000C8208DF80200C2208DF8030006E0A320E6
:104850008DF801008DF802008DF8030004F4C0709B
:1048600048B1C4208DF80400CC208DF80500C62086
:104870008DF8060006E0A3208DF804008DF80500F1
:104880008DF80600A3208DF807008DF808008DF83C
:1048900009006A460A2140F6A72002F05FFA04F0F8
:1048A000030018B120208DF8000002E0D8208DF818
:1048B00000006A46012140F6B62002F04FFA04F0EB
:1048C000200018B1012000F0ADF802E0002000F057
:1048D000A9F804F4C07008B304F4807060B1B22089
:1048E0008DF800008B208DF80100B6208DF80200B5
:1048F0009B208DF803000BE0B0208DF80000802095
:104900008DF80100B4208DF8020090208DF803008E
:104910006A46042140F6A22002F020FA04F00100C9
:1049200020B3F8208DF800006A4601214FF40B6097
:1049300002F014FAFA21072000F02CFC072000F006
:10494000F3FB012000F013FC642000F003FD4FF4A2
:10495000FA7000F012FDC821304800F0A3FB2820B7
:1049600000F0BCFB0A2000F0CCFB08E0D8208DF85A
:1049700000006A4601214FF40B6002F0EFF904F0E9
:10498000020018B1D9208DF8000002E0D8208DF87F
:1049900000006A46012140F23D7002F0DFF904F0A8
:1049A000040018B1012000F069F802E0002000F0D6
:1049B00065F804F0100018B10120FFF707FF02E0CE
:1049C0000020FFF703FF44F008001549488101F07B
:1049D000B1FD00201249887304F0400018B1084668
:1049E000807B801D887304F4C07020B10C48807BEC
:1049F000801D0B49887304F0140020B10848807BA7
:104A000010300749887304F0030020B10448807B0C
:104A1000001D0349887300203EBD000009E3CA025F
:104A2000240200203EB504466CB10EA1D1E900205D
:104A30008968CDE9002002916A4609214FF4976008
:104A400002F08CF93EBD0AA2D2E900109268CDE9CD
:104A5000010200916A4609214FF4976002F07EF945
:104A6000F0E70000B8AAB38DB4980D355D000000E2
:104A7000B8AAAAAAB088C3C5C700000038B50446C2
:104A800064B1C0208DF80000C2208DF80100C42060
:104A90008DF80200C6208DF8030004E08B2204216B
:104AA0006846FBF70AFE6A46042140F6982002F0A9
:104AB00055F901F03FFD38BD10B5C8234FF48062B1
:104AC000024940F6F63001F0C9FB10BD20A00008F5
:104AD0002DE9F04F8DB00746884615469946DDE929
:104AE000166B0024002030806B49887B5A4605A94C
:104AF00001F080FC18B1601E0DB0BDE8F08F664873
:104B0000807A00F01400002867D09DF81400000699
:104B10009DF8151040EA01409DF8161040EA01206A
:104B20009DF81710084328609DF8180000069DF8AE
:104B3000191040EA01409DF81A1040EA01209DF842
:104B40001B10084368609DF81C0000069DF81D10AE
:104B500040EA01409DF81E1040EA01209DF81F1018
:104B60000843A8609DF8200000069DF8211040EA47
:104B700001409DF8221040EA01209DF823100843CF
:104B8000E86004F11000C4B228680014019068685D
:104B900000140290A86800140390E86800140490C0
:104BA00001984043029901FB0100039901FB0100B8
:104BB000049901FB010ABAF1706F02DBBAF1885F58
:104BC00005DD01F0B7FC00203080401E94E7B6F907
:104BD000000040F48070308000BF2F48807A00F0E1
:104BE000400020B305A9601C085C095D40EA012073
:104BF00000B2A8F8000005A9E01C095C05AAA01CE9
:104C0000105C41EA002000B2A8F8020005A9601D6E
:104C1000095C201D105C41EA002000B2A8F80400E5
:104C2000A01DC4B2B6F9000040F0080030801A4858
:104C3000408900F4C07008B305A9601C085C095DD8
:104C400040EA012000B2388005A9E01C095C05AAF1
:104C5000A01C105C41EA002000B2788005A9601D0C
:104C6000095C201D105C41EA002000B2B880A01D44
:104C7000C4B2B6F9000040F0700030800648807A77
:104C800000F0030018B105A90819FFF707FD484611
:104C900000F056FF00202FE72402002070B588B0F6
:104CA000064601A801F006F9BDF804000021C90379
:104CB00041EA5045C4034448007A00F0030056F826
:104CC000200005904048007A00F0040010B10598DB
:104CD000404205903C48007AC0F3C10056F82000DD
:104CE00006903948007A00F0200010B10698404242
:104CF00006903548007AC0F3811056F820000790DE
:104D00003148008900F4807010B107984042079044
:104D10000598C117A0FB042301FB043100FB05101B
:104D2000810041EA927005900698C117A0FB042308
:104D300001FB043100FB0510810041EA92700690EE
:104D40000798C117A0FB042301FB043100FB0510E9
:104D5000810041EA927007900598000E8DF80800D6
:104D60000598000C8DF809000598000A8DF80A00D6
:104D70000598C0B28DF80B000698000E8DF80C0057
:104D80000698000C8DF80D000698000A8DF80E00AC
:104D90000698C0B28DF80F000798000E8DF810002D
:104DA0000798000C8DF811000798000A8DF8120082
:104DB0000798C0B28DF8130002AA0C214FF4257099
:104DC00001F0CCFF08B070BD2402002030B585B0E2
:104DD000044616A207CA02AB07C3C82C03DD4FF076
:104DE000FF3005B030BDC82090FBF4F0401E85B206
:104DF000280A8DF80000E8B28DF801006A46022109
:104E000040F2162001F0AAFF10B14FF0FF30E8E7A2
:104E100002AA0C2140F6C12001F0A0FF10B14FF012
:104E2000FF30DEE7044884810020DAE7FEF2ABC4FD
:104E3000AAF1DFDFBBAFDFDF240200201FB504468D
:104E40004848007A00F0030054F8200001904548DB
:104E5000007A00F0040010B10198404201904148EE
:104E6000007AC0F3C10054F8200002903D48007A57
:104E700000F0200010B10298404202903948007AB8
:104E8000C0F3811054F8200003903648008900F4E4
:104E9000807010B10398404203903349019880FB21
:104EA0000101800F40EA810001902F49029880FBA8
:104EB0000110820042EA917002902B49039880FB16
:104EC0000110820042EA917003900198000E8DF863
:104ED00000000198000C8DF801000198000A8DF87F
:104EE00002000198C0B28DF803006A4604214FF415
:104EF000747001F033FF18B14FF0FF3004B010BDF3
:104F00000298000E8DF800000298000C8DF8010048
:104F10000298000A8DF802000298C0B28DF80300D2
:104F20006A4604214FF4757001F018FF10B14FF07C
:104F3000FF30E3E70398000E8DF800000398000CA3
:104F40008DF801000398000A8DF802000398C0B2A2
:104F50008DF803006A4604214FF4767001F0FEFEDE
:104F6000CCE700002402002009E3CA0210B586B095
:104F7000044647A00068039046A00068029046A03F
:104F80000068019045A00068009004F0030003A9A8
:104F9000085C8DF8140003A8C4F3C101405C8DF8CF
:104FA000150003A8C4F38111405C8DF8160004F0CD
:104FB000030002A9085C8DF8100002A8C4F3C10127
:104FC000405C8DF8110002A8C4F38111405C8DF89B
:104FD000120005AA032140F2264001F0BFFE18B1DD
:104FE0004FF0FF3006B010BD04AA032140F22A4062
:104FF00001F0B4FE10B14FF0FF30F3E701980590D7
:105000000098049004F0040058B19DF8140040F09A
:1050100001008DF814009DF8100040F001008DF89B
:10502000100004F0200058B19DF8150040F0010078
:105030008DF815009DF8110040F001008DF8110069
:1050400004F4807058B19DF8160040F001008DF80E
:1050500016009DF8120040F001008DF8120005AA1C
:1050600003214FF4886001F079FE10B14FF0FF305A
:10507000B8E704AA032140F2314001F06FFE10B1FD
:105080004FF0FF30AEE7064804810020AAE7000099
:105090004CCD6C000CC92C003656760026466600B6
:1050A00024020020F8B505460E464FF47A7095FBB1
:1050B000F0F000FB06F4200E8DF80000200C8DF8B7
:1050C0000100200A8DF80200E0B28DF803006A4664
:1050D00004214FF4AE7001F041FEF8BD38B504462E
:1050E000052094FBF0F084B220128DF80000E0B2AD
:1050F0008DF801006A4602214FF4AD7001F02EFEDA
:1051000038BD38B50446052094FBF0F084B2201277
:105110008DF80000E0B28DF801006A4602214FF4DC
:10512000AC7001F01BFE38BD38B50446002000907D
:1051300004F0010020B19DF8000040F03000009024
:1051400004F0020020B19DF8000040F00C00009037
:1051500004F0040020B19DF8000040F0030000902E
:105160006A4601214FF4A47001F0F8FD38BD38B54E
:105170000446012C01DA012402E0042C00DD0424A1
:10518000601EC0B200906A46012140F24F1001F04B
:10519000E5FD38BDF0B52DED028B83B006460F4618
:1051A00006F0070010B1B7F5C86F05DD4FF0FF300E
:1051B00003B0BDEC028BF0BD00EE107AB8EE400AF1
:1051C000DFED5B0A80EE208A01A800F04DFE9DF81D
:1051D0000400022806D0042817D0082828D0102858
:1051E0004CD138E09FED530A28EE000ABCEEC00A0D
:1051F00010EE100A84B29FED500A28EE000ABCEEB1
:10520000C00A10EE100A85B23BE09FED4C0A28EE72
:10521000000ABCEEC00A10EE100A84B29FED480AE4
:1052200028EE000ABCEEC00A10EE100A85B228E093
:105230009FED440A28EE000ABCEEC00A10EE100AE8
:1052400084B29FED410A28EE000ABCEEC00A10EEBF
:10525000100A85B215E09FED3D0A28EE000ABCEE6B
:10526000C00A10EE100A84B29FED390A28EE000A37
:10527000BCEEC00A10EE100A85B202E04FF0FF301B
:1052800096E700BF20128DF80800E0B28DF8090003
:1052900028128DF80A00E8B28DF80B0006F0010024
:1052A000A0B102AA02214FF4EA7001F057FD10B13B
:1052B0004FF0FF307CE70DF10A0202214FF49270AB
:1052C00001F04CFD10B14FF0FF3071E706F0020025
:1052D000A0B102AA02214FF4EC7001F03FFD10B121
:1052E0004FF0FF3064E70DF10A0202214FF4947091
:1052F00001F034FD10B14FF0FF3059E706F0040023
:10530000A0B102AA02214FF4EE7001F027FD10B106
:105310004FF0FF304CE70DF10A0202214FF4967076
:1053200001F01CFD10B14FF0FF3041E700203FE7D6
:105330000000484300008046000040460000004650
:105340000000C045000080450000404500000045C9
:105350000000C04438B50446052094FBF0F085B247
:1053600028128DF80000E8B28DF801006A4602218B
:105370004FF4EF7001F0F2FC38BD38B5044605205B
:1053800094FBF0F085B228128DF80000E8B28DF899
:1053900001006A4602214FF4ED7001F0DFFC38BDD8
:1053A00082B0CDE9000121F0004001909DED000B9D
:1053B00002B051EC100B704700BF054A128802F092
:1053C0004002002AF9D0C2B2014B9A807047000017
:1053D000001001407CB505462E494968087801ABAC
:1053E00004220D21FCF75CF808B107207CBD9DF874
:1053F0000700C0F301109DF8041001F0E00140EA3D
:10540000E1008DF800009DF80700C0F381009DF8D1
:10541000051001F0E00140EAE1008DF801009DF87F
:10542000070000F003009DF8061001F0E00140EADB
:10543000E1008DF80200002427E01DF8040030B9D7
:105440009FED150A05EB840080ED000A1BE09FED3F
:10545000130A05EB840080ED000A0BE005EB8400E5
:1054600090ED000ADFED0E0A20EE200A05EB840025
:1054700080ED000A1DF80400401EC0B20DF80400C3
:105480000028EBD100BF601CC4B2032CD5DB002088
:10549000ACE700009C000020000000007B14AE3E42
:1054A0001D5A843F2DE9F04F87B005460C469146C2
:1054B00001208DF8100000208DF81100FE4A1268BE
:1054C000917CFD4A5268107804AB0222FCF78EF8FA
:1054D00020B14FF0FF3007B0BDE8F08FC820FFF7D4
:1054E00031F900208DF81000F34A1268D17BF24A9E
:1054F0005268107804AB0122FCF778F810B14FF035
:10550000FF30E8E7EC4A12685179EB4A52681078AC
:1055100004AB0122FCF76AF810B14FF0FF30DAE774
:10552000E54A1268917CE44A5268107804AB012283
:10553000FCF75CF810B14FF0FF30CCE7DE4A1268A0
:10554000D17DDD4A5268107804AB0122FCF74EF899
:1055500010B14FF0FF30BEE7D74A12681179D64A32
:105560005268107804AB0122FCF740F810B14FF0FC
:10557000FF30B0E70C208DF81000CF4A1268117987
:10558000CD4A5268107804AB0122FCF72FF810B115
:105590004FF0FF309FE70F20FFF7D4F8C648806A2E
:1055A000407A8DF81000C44A12689178C24A526855
:1055B000107804AB0122FCF719F810B14FF0FF305E
:1055C00089E7BD48806A007A8DF81000BA4A1268EF
:1055D0005178B94A5268107804AB0122FCF706F8FA
:1055E00010B14FF0FF3076E7B9F1000F07D0B248A5
:1055F000806A807A40F0E0008DF8100004E0AE4848
:10560000806A807A8DF81000AB4A12689179AA4AB4
:105610005268107804AB0122FBF7E8FF10B14FF09D
:10562000FF3058E7B9F1000F07D0A348806AC07A6D
:1056300040F0E0008DF8100003E0A048C07A8DF83B
:1056400010009D4A1268D1799B4A5268107804ABC9
:105650000122FBF7CBFF10B14FF0FF303BE7B9F170
:10566000000F02D0C820FFF76DF840208DF8100021
:10567000914A12681179904A5268107804AB01225D
:10568000FBF7B4FF10B14FF0FF3024E778208DF81E
:105690001000894A12685179874A5268107804AB21
:1056A0000122FBF7A3FF10B14FF0FF3013E783494E
:1056B0008889FFF747F800208DF810007E4A1268AD
:1056C00051797D4A5268107804AB0122FBF78EFFB6
:1056D00010B14FF0FF30FEE6774A1268917A764AB1
:1056E0005268107804AB0222FBF7DAFE10B14FF0DB
:1056F000FF30F0E69DF811009DF8101040EA012BF4
:105700000C209BFBF0F0C6B20020A8606860286007
:10571000A06060602060824665E0674A1268D17AC6
:10572000654A5268107804AB0C22FBF7B9FE10B141
:105730004FF0FF30CFE69DF811009DF8101040EAC1
:10574000012000B2ADF808009DF813009DF812107A
:1057500040EA012000B2ADF80A009DF815009DF85E
:10576000141040EA012000B2ADF80C00BDF9081099
:10577000206808442060BDF90A1060680844606031
:10578000BDF90C10A0680844A0609DF817009DF8B2
:10579000161040EA012000B2ADF800009DF8190093
:1057A0009DF8181040EA012000B2ADF802009DF803
:1057B0001B009DF81A1040EA012000B2ADF8040069
:1057C000BDF90010286808442860BDF90210686817
:1057D00008446860BDF90410A8680844A8600AF18C
:1057E000010000F0FF0AB24597DB3448D0F800C052
:1057F0002868C117090441EA1041070462460023E2
:105800003846FAF7B6FD32460023CDE90201FAF731
:10581000B0FD28602948D0F800C06868C1170904A5
:1058200041EA10410704624600233846FAF7A1FD19
:1058300032460023CDE90201FAF79BFD68601F485C
:10584000D0F800C0A868C117090441EA1041070454
:10585000624600233846FAF78CFD32460023CDE934
:105860000201FAF786FDA8601448D0F804C0206849
:10587000C117090441EA1041070462460023384673
:10588000FAF777FD32460023CDE90201FAF771FD00
:1058900020600A48D0F804C06068C117090441EAD2
:1058A00010410704624600233846FAF762FD32468B
:1058B0000023CDE9020103E09C000020F89F0008CE
:1058C000FAF757FD60601148D0F804C0A068C1170E
:1058D000090441EA10410704624600233846FAF7FA
:1058E00048FD32460023CDE90201FAF742FDA060EF
:1058F000A068002804DDA068A0F58030A06003E067
:10590000A06800F58030A0600020E4E5F89F000862
:10591000F0B52DED048B81B006460F4600253E49BB
:10592000496808786B4603220D21FBF7B9FD20B1C9
:10593000072001B0BDEC048BF0BD9DF8000000F025
:105940001F008DF800009DF8010000F01F008DF889
:1059500001009DF8020000F01F008DF802000024F5
:1059600055E056F8241057F82420881A002801DB47
:10597000014600E0414200EE101AB8EEC00ADFED29
:10598000270A80EE208A1DF8040068B3244890EDB1
:10599000000AB8EE400ADFED230A80EE801AF0EE2E
:1059A000418A05E09FED200A28EE800AF0EE408A49
:1059B0001DF80400401EC0B20DF804000028F1D10B
:1059C00088EE280AF7EE000A30EE609AB0EEC90AB7
:1059D0001348D0ED060AB4EEE00AF1EE10FA15DD38
:1059E0000120A040054311E00D4890ED040AB4EEFB
:1059F000C80AF1EE10FA06DC90ED050AB4EEC80A0A
:105A0000F1EE10FA02D20120A0400543641C032CE1
:105A1000A7DB28468DE700009C000020000080479F
:105A2000F89F000800B04C4554E3853F08B54FF49B
:105A3000A060FBF787FE37208DF8000000208DF86E
:105A400001008DF8020001208DF803006846FBF785
:105A50003DFE08BD08B54FF4A060FBF773FE322091
:105A60008DF8000000208DF801008DF80200012063
:105A70008DF803006846FBF729FE08BD10B5044603
:105A8000204600F00FF80346E01C00F00BF843EA54
:105A9000C00083B2A01D00F005F843EA801083B275
:105AA000184610BD014691F90020002A01DD0020B2
:105AB0001EE091F90020002A01DA042018E091F993
:105AC0000120002A01DD012012E091F90120002AC5
:105AD00001DA05200CE091F90220002A01DD022004
